{
  "address": "0x02750C9345A7Cc6Aedb726f9471d7Dd3483E85Bc",
  "abi": [
    {
      "name": "CommitOwnership",
      "inputs": [
        {
          "type": "address",
          "name": "admin",
          "indexed": false
        }
      ],
      "anonymous": false,
      "type": "event"
    },
    {
      "name": "ApplyOwnership",
      "inputs": [
        {
          "type": "address",
          "name": "admin",
          "indexed": false
        }
      ],
      "anonymous": false,
      "type": "event"
    },
    {
      "name": "Deposit",
      "inputs": [
        {
          "type": "address",
          "name": "provider",
          "indexed": true
        },
        {
          "type": "uint256",
          "name": "value",
          "indexed": false
        },
        {
          "type": "uint256",
          "name": "locktime",
          "indexed": true
        },
        {
          "type": "int128",
          "name": "type",
          "indexed": false
        },
        {
          "type": "uint256",
          "name": "ts",
          "indexed": false
        }
      ],
      "anonymous": false,
      "type": "event"
    },
    {
      "name": "Withdraw",
      "inputs": [
        {
          "type": "address",
          "name": "provider",
          "indexed": true
        },
        {
          "type": "uint256",
          "name": "value",
          "indexed": false
        },
        {
          "type": "uint256",
          "name": "ts",
          "indexed": false
        }
      ],
      "anonymous": false,
      "type": "event"
    },
    {
      "name": "Supply",
      "inputs": [
        {
          "type": "uint256",
          "name": "prevSupply",
          "indexed": false
        },
        {
          "type": "uint256",
          "name": "supply",
          "indexed": false
        }
      ],
      "anonymous": false,
      "type": "event"
    },
    {
      "outputs": [],
      "inputs": [
        {
          "type": "address",
          "name": "token_addr"
        },
        {
          "type": "string",
          "name": "_name"
        },
        {
          "type": "string",
          "name": "_symbol"
        },
        {
          "type": "string",
          "name": "_version"
        }
      ],
      "stateMutability": "nonpayable",
      "type": "constructor"
    },
    {
      "name": "commit_transfer_ownership",
      "outputs": [],
      "inputs": [
        {
          "type": "address",
          "name": "addr"
        }
      ],
      "stateMutability": "nonpayable",
      "type": "function",
      "gas": 37568
    },
    {
      "name": "apply_transfer_ownership",
      "outputs": [],
      "inputs": [],
      "stateMutability": "nonpayable",
      "type": "function",
      "gas": 38407
    },
    {
      "name": "commit_smart_wallet_checker",
      "outputs": [],
      "inputs": [
        {
          "type": "address",
          "name": "addr"
        }
      ],
      "stateMutability": "nonpayable",
      "type": "function",
      "gas": 36278
    },
    {
      "name": "apply_smart_wallet_checker",
      "outputs": [],
      "inputs": [],
      "stateMutability": "nonpayable",
      "type": "function",
      "gas": 37005
    },
    {
      "name": "toggleEmergencyUnlock",
      "outputs": [],
      "inputs": [],
      "stateMutability": "nonpayable",
      "type": "function",
      "gas": 37038
    },
    {
      "name": "recoverERC20",
      "outputs": [],
      "inputs": [
        {
          "type": "address",
          "name": "token_addr"
        },
        {
          "type": "uint256",
          "name": "amount"
        }
      ],
      "stateMutability": "nonpayable",
      "type": "function",
      "gas": 3148
    },
    {
      "name": "get_last_user_slope",
      "outputs": [
        {
          "type": "int128",
          "name": ""
        }
      ],
      "inputs": [
        {
          "type": "address",
          "name": "addr"
        }
      ],
      "stateMutability": "view",
      "type": "function",
      "gas": 2600
    },
    {
      "name": "user_point_history__ts",
      "outputs": [
        {
          "type": "uint256",
          "name": ""
        }
      ],
      "inputs": [
        {
          "type": "address",
          "name": "_addr"
        },
        {
          "type": "uint256",
          "name": "_idx"
        }
      ],
      "stateMutability": "view",
      "type": "function",
      "gas": 1703
    },
    {
      "name": "locked__end",
      "outputs": [
        {
          "type": "uint256",
          "name": ""
        }
      ],
      "inputs": [
        {
          "type": "address",
          "name": "_addr"
        }
      ],
      "stateMutability": "view",
      "type": "function",
      "gas": 1624
    },
    {
      "name": "checkpoint",
      "outputs": [],
      "inputs": [],
      "stateMutability": "nonpayable",
      "type": "function",
      "gas": 46119699
    },
    {
      "name": "deposit_for",
      "outputs": [],
      "inputs": [
        {
          "type": "address",
          "name": "_addr"
        },
        {
          "type": "uint256",
          "name": "_value"
        }
      ],
      "stateMutability": "nonpayable",
      "type": "function",
      "gas": 92414024
    },
    {
      "name": "create_lock",
      "outputs": [],
      "inputs": [
        {
          "type": "uint256",
          "name": "_value"
        },
        {
          "type": "uint256",
          "name": "_unlock_time"
        }
      ],
      "stateMutability": "nonpayable",
      "type": "function",
      "gas": 92415425
    },
    {
      "name": "increase_amount",
      "outputs": [],
      "inputs": [
        {
          "type": "uint256",
          "name": "_value"
        }
      ],
      "stateMutability": "nonpayable",
      "type": "function",
      "gas": 92414846
    },
    {
      "name": "increase_unlock_time",
      "outputs": [],
      "inputs": [
        {
          "type": "uint256",
          "name": "_unlock_time"
        }
      ],
      "stateMutability": "nonpayable",
      "type": "function",
      "gas": 92415493
    },
    {
      "name": "withdraw",
      "outputs": [],
      "inputs": [],
      "stateMutability": "nonpayable",
      "type": "function",
      "gas": 46291332
    },
    {
      "name": "balanceOf",
      "outputs": [
        {
          "type": "uint256",
          "name": ""
        }
      ],
      "inputs": [
        {
          "type": "address",
          "name": "addr"
        }
      ],
      "stateMutability": "view",
      "type": "function"
    },
    {
      "name": "balanceOf",
      "outputs": [
        {
          "type": "uint256",
          "name": ""
        }
      ],
      "inputs": [
        {
          "type": "address",
          "name": "addr"
        },
        {
          "type": "uint256",
          "name": "_t"
        }
      ],
      "stateMutability": "view",
      "type": "function"
    },
    {
      "name": "balanceOfAt",
      "outputs": [
        {
          "type": "uint256",
          "name": ""
        }
      ],
      "inputs": [
        {
          "type": "address",
          "name": "addr"
        },
        {
          "type": "uint256",
          "name": "_block"
        }
      ],
      "stateMutability": "view",
      "type": "function",
      "gas": 512868
    },
    {
      "name": "totalSupply",
      "outputs": [
        {
          "type": "uint256",
          "name": ""
        }
      ],
      "inputs": [],
      "stateMutability": "view",
      "type": "function"
    },
    {
      "name": "totalSupply",
      "outputs": [
        {
          "type": "uint256",
          "name": ""
        }
      ],
      "inputs": [
        {
          "type": "uint256",
          "name": "t"
        }
      ],
      "stateMutability": "view",
      "type": "function"
    },
    {
      "name": "totalSupplyAt",
      "outputs": [
        {
          "type": "uint256",
          "name": ""
        }
      ],
      "inputs": [
        {
          "type": "uint256",
          "name": "_block"
        }
      ],
      "stateMutability": "view",
      "type": "function",
      "gas": 882020
    },
    {
      "name": "totalIQSupply",
      "outputs": [
        {
          "type": "uint256",
          "name": ""
        }
      ],
      "inputs": [],
      "stateMutability": "view",
      "type": "function",
      "gas": 2116
    },
    {
      "name": "totalIQSupplyAt",
      "outputs": [
        {
          "type": "uint256",
          "name": ""
        }
      ],
      "inputs": [
        {
          "type": "uint256",
          "name": "_block"
        }
      ],
      "stateMutability": "view",
      "type": "function",
      "gas": 252170
    },
    {
      "name": "changeController",
      "outputs": [],
      "inputs": [
        {
          "type": "address",
          "name": "_newController"
        }
      ],
      "stateMutability": "nonpayable",
      "type": "function",
      "gas": 36998
    },
    {
      "name": "token",
      "outputs": [
        {
          "type": "address",
          "name": ""
        }
      ],
      "inputs": [],
      "stateMutability": "view",
      "type": "function",
      "gas": 1871
    },
    {
      "name": "supply",
      "outputs": [
        {
          "type": "uint256",
          "name": ""
        }
      ],
      "inputs": [],
      "stateMutability": "view",
      "type": "function",
      "gas": 1901
    },
    {
      "name": "locked",
      "outputs": [
        {
          "type": "int128",
          "name": "amount"
        },
        {
          "type": "uint256",
          "name": "end"
        }
      ],
      "inputs": [
        {
          "type": "address",
          "name": "arg0"
        }
      ],
      "stateMutability": "view",
      "type": "function",
      "gas": 3380
    },
    {
      "name": "epoch",
      "outputs": [
        {
          "type": "uint256",
          "name": ""
        }
      ],
      "inputs": [],
      "stateMutability": "view",
      "type": "function",
      "gas": 1961
    },
    {
      "name": "point_history",
      "outputs": [
        {
          "type": "int128",
          "name": "bias"
        },
        {
          "type": "int128",
          "name": "slope"
        },
        {
          "type": "uint256",
          "name": "ts"
        },
        {
          "type": "uint256",
          "name": "blk"
        },
        {
          "type": "uint256",
          "name": "iq_amt"
        }
      ],
      "inputs": [
        {
          "type": "uint256",
          "name": "arg0"
        }
      ],
      "stateMutability": "view",
      "type": "function",
      "gas": 6280
    },
    {
      "name": "user_point_history",
      "outputs": [
        {
          "type": "int128",
          "name": "bias"
        },
        {
          "type": "int128",
          "name": "slope"
        },
        {
          "type": "uint256",
          "name": "ts"
        },
        {
          "type": "uint256",
          "name": "blk"
        },
        {
          "type": "uint256",
          "name": "iq_amt"
        }
      ],
      "inputs": [
        {
          "type": "address",
          "name": "arg0"
        },
        {
          "type": "uint256",
          "name": "arg1"
        }
      ],
      "stateMutability": "view",
      "type": "function",
      "gas": 6525
    },
    {
      "name": "user_point_epoch",
      "outputs": [
        {
          "type": "uint256",
          "name": ""
        }
      ],
      "inputs": [
        {
          "type": "address",
          "name": "arg0"
        }
      ],
      "stateMutability": "view",
      "type": "function",
      "gas": 2266
    },
    {
      "name": "slope_changes",
      "outputs": [
        {
          "type": "int128",
          "name": ""
        }
      ],
      "inputs": [
        {
          "type": "uint256",
          "name": "arg0"
        }
      ],
      "stateMutability": "view",
      "type": "function",
      "gas": 2196
    },
    {
      "name": "controller",
      "outputs": [
        {
          "type": "address",
          "name": ""
        }
      ],
      "inputs": [],
      "stateMutability": "view",
      "type": "function",
      "gas": 2111
    },
    {
      "name": "transfersEnabled",
      "outputs": [
        {
          "type": "bool",
          "name": ""
        }
      ],
      "inputs": [],
      "stateMutability": "view",
      "type": "function",
      "gas": 2141
    },
    {
      "name": "emergencyUnlockActive",
      "outputs": [
        {
          "type": "bool",
          "name": ""
        }
      ],
      "inputs": [],
      "stateMutability": "view",
      "type": "function",
      "gas": 2171
    },
    {
      "name": "name",
      "outputs": [
        {
          "type": "string",
          "name": ""
        }
      ],
      "inputs": [],
      "stateMutability": "view",
      "type": "function",
      "gas": 8603
    },
    {
      "name": "symbol",
      "outputs": [
        {
          "type": "string",
          "name": ""
        }
      ],
      "inputs": [],
      "stateMutability": "view",
      "type": "function",
      "gas": 7656
    },
    {
      "name": "version",
      "outputs": [
        {
          "type": "string",
          "name": ""
        }
      ],
      "inputs": [],
      "stateMutability": "view",
      "type": "function",
      "gas": 7686
    },
    {
      "name": "decimals",
      "outputs": [
        {
          "type": "uint256",
          "name": ""
        }
      ],
      "inputs": [],
      "stateMutability": "view",
      "type": "function",
      "gas": 2291
    },
    {
      "name": "future_smart_wallet_checker",
      "outputs": [
        {
          "type": "address",
          "name": ""
        }
      ],
      "inputs": [],
      "stateMutability": "view",
      "type": "function",
      "gas": 2321
    },
    {
      "name": "smart_wallet_checker",
      "outputs": [
        {
          "type": "address",
          "name": ""
        }
      ],
      "inputs": [],
      "stateMutability": "view",
      "type": "function",
      "gas": 2351
    },
    {
      "name": "admin",
      "outputs": [
        {
          "type": "address",
          "name": ""
        }
      ],
      "inputs": [],
      "stateMutability": "view",
      "type": "function",
      "gas": 2381
    },
    {
      "name": "future_admin",
      "outputs": [
        {
          "type": "address",
          "name": ""
        }
      ],
      "inputs": [],
      "stateMutability": "view",
      "type": "function",
      "gas": 2411
    }
  ],
  "transactionHash": "0x45b683cf98adb82fe60694c87bb89d4fa11e79b482b0cfd7190c9a10fd9a88fa",
  "args": [
    "0xb7C3B17f97C2099d44d38E3dbd7496b782005819",
    "hiIQ",
    "hiIQ",
    "1.0.0"
  ],
  "bytecode": "0x6f7fffffffffffffffffffffffffffffff60405260806134e96101403960206134e960c03960c05160a01c1561003457600080fd5b6060602060206134e90160c03960c0516134e9016101c0396040602060206134e90160c03960c05160040135111561006b57600080fd5b6040602060406134e90160c03960c0516134e901610240396020602060406134e90160c03960c0516004013511156100a257600080fd5b6040602060606134e90160c03960c0516134e9016102a0396020602060606134e90160c03960c0516004013511156100d957600080fd5b3360115561014051600055436003600460c052602060c02060c052602060c0200155426002600460c052602060c02060c052602060c020015560006004600460c052602060c02060c052602060c02001553360085560016009556020610380600463313ce5676103205261033c610140515afa61015557600080fd5b601f3d1161016257600080fd5b600050610380516103005260ff61030051111561017e57600080fd5b61030051600e556101c080600b60c052602060c020602082510161012060006003818352015b826101205160200211156101b7576101d9565b61012051602002850151610120518501555b81516001018083528114156101a4575b50505050505061024080600c60c052602060c020602082510161012060006002818352015b8261012051602002111561021157610233565b61012051602002850151610120518501555b81516001018083528114156101fe575b5050505050506102a080600d60c052602060c020602082510161012060006002818352015b8261012051602002111561026b5761028d565b61012051602002850151610120518501555b8151600101808352811415610258575b5050505050506134d156341561000a57600080fd5b600436101561001857613233565b600035601c526f7fffffffffffffffffffffffffffffff604052636b441a4060005114156100945760043560a01c1561005057600080fd5b601154331461005e57600080fd5b600435601255600435610140527f2f56810a6bf40af059b96d3aea4db54081f378029a518390491093a7b67032e96020610140a1005b636a1c05ae60005114156100ff5760115433146100b057600080fd5b60125461014052600061014051186100c757600080fd5b6101405160115561014051610160527febee2d5739011062cb4f14113f3b36bf0ffe3da5c0568f64189d1012a11891056020610160a1005b6357f901e260005114156101335760043560a01c1561011d57600080fd5b601154331461012b57600080fd5b600435600f55005b638e5b490f600051141561015757601154331461014f57600080fd5b600f54601055005b6388c2b3e3600051141561017c57601154331461017357600080fd5b600a5415600a55005b638980f11f60005114156101ef5760043560a01c1561019a57600080fd5b60115433146101a857600080fd5b60206101e0604463a9059cbb61014052601154610160526024356101805261015c60006004355af16101d957600080fd5b601f3d116101e657600080fd5b6000506101e050005b6000156102d9575b6101605261014052326101405118156102d357601054610180526000610180511815610269576020610220602463c23697a86101a052610140516101c0526101bc6000610180515af161024957600080fd5b601f3d1161025657600080fd5b60005061022051156102685761016051565b5b6308c379a06101a05260206101c05260256101e0527f536d61727420636f6e7472616374206465706f7369746f7273206e6f7420616c610200527f6c6f776564000000000000000000000000000000000000000000000000000000610220526101e05060846101bcfd5b61016051565b637c74a17460005114156103505760043560a01c156102f757600080fd5b600660043560e05260c052604060c0205461014052600161014051633b9aca00811061032257600080fd5b600560043560e05260c052604060c02060c052602060c0200160c052602060c020015460005260206000f350005b63da020a1860005114156103b15760043560a01c1561036e57600080fd5b6002602435633b9aca00811061038357600080fd5b600560043560e05260c052604060c02060c052602060c0200160c052602060c020015460005260206000f350005b63adc6358960005114156103f65760043560a01c156103cf57600080fd5b6001600260043560e05260c052604060c02060c052602060c020015460005260206000f350005b600015610d6c575b6101e0526101405261016052610180526101a0526101c05261018036610200376003546103805260006101405118156105cd5742610180511115610448576000610160511361044b565b60005b156104d45761016051630784ce008082058080600081121561046957195b607f1c1561047657600080fd5b905090509050610220526102205161018051428082101561049657600080fd5b808203905090506040518111156104ac57600080fd5b808202808060008112156104bc57195b607f1c156104c957600080fd5b905090509050610200525b426101c05111156104eb5760006101a051136104ee565b60005b15610577576101a051630784ce008082058080600081121561050c57195b607f1c1561051957600080fd5b9050905090506102c0526102c0516101c051428082101561053957600080fd5b8082039050905060405181111561054f57600080fd5b8082028080600081121561055f57195b607f1c1561056c57600080fd5b9050905090506102a0525b60076101805160e05260c052604060c020546103405260006101c05118156105cc57610180516101c05114156105b45761034051610360526105cb565b60076101c05160e05260c052604060c02054610360525b5b5b6103a0600081526000816020015242816040015243816060015260008160800152506000610380511115610681576103a0610380516c01431e0fae6d7217caa0000000811061061b57600080fd5b600460c052602060c020018060c052602060c02054825260018160c052602060c0200154826020015260028160c052602060c0200154826040015260038160c052602060c0200154826060015260048160c052602060c0200154826080015250506106c0565b60206104c060246370a0823161044052306104605261045c6000545afa6106a757600080fd5b601f3d116106b457600080fd5b6000506104c051610420525b6103e051610440526104606103a0805182528060200151826020015280604001518260400152806060015182606001528060800151826080015250506000610500526103e05142111561077957670de0b6b3a764000043610400518082101561072857600080fd5b80820390509050808202821582848304141761074357600080fd5b80905090509050426103e0518082101561075c57600080fd5b80820390509050808061076e57600080fd5b820490509050610500525b6104405162093a808082049050905062093a8080820282158284830414176107a057600080fd5b8090509050905061052052610540600060ff818352015b610520805162093a808181830110156107cf57600080fd5b80820190509050815250600061056052426105205111156107f457426105205261080b565b60076105205160e05260c052604060c02054610560525b6103a080516103c05161052051610440518082101561082957600080fd5b8082039050905060405181111561083f57600080fd5b8082028080600081121561084f57195b607f1c1561085c57600080fd5b9050905090508082038080600081121561087257195b607f1c1561087f57600080fd5b9050905090508152506103c0805161056051808201808060008112156108a157195b607f1c156108ae57600080fd5b90509050905081525060006103a05112156108ca5760006103a0525b60006103c05112156108dd5760006103c0525b6105205161044052610520516103e0526104c05161050051610520516104a0518082101561090a57600080fd5b80820390509050808202821582848304141761092557600080fd5b80905090509050670de0b6b3a76400008082049050905081818301101561094b57600080fd5b80820190509050610400526103808051600181818301101561096c57600080fd5b80820190509050815250426105205114156109cd574361040052602061060060246370a0823161058052306105a05261059c6000545afa6109ac57600080fd5b601f3d116109b957600080fd5b6000506106005161042052610a4056610a2f565b610380516c01431e0fae6d7217caa000000081106109ea57600080fd5b600460c052602060c0200160c052602060c0206103a0805182558060200151600183015580604001516002830155806060015160038301558060800151600483015550505b5b81516001018083528114156107b7575b5050610380516003556000610140511815610b28576103c080516102c0516102205180820380806000811215610a7257195b607f1c15610a7f57600080fd5b90509050905080820180806000811215610a9557195b607f1c15610aa257600080fd5b9050905090508152506103a080516102a0516102005180820380806000811215610ac857195b607f1c15610ad557600080fd5b90509050905080820180806000811215610aeb57195b607f1c15610af857600080fd5b90509050905081525060006103c0511215610b145760006103c0525b60006103a0511215610b275760006103a0525b5b610380516c01431e0fae6d7217caa00000008110610b4557600080fd5b600460c052602060c0200160c052602060c0206103a0805182558060200151600183015580604001516002830155806060015160038301558060800151600483015550506000610140511815610d665742610180511115610c245761034080516102205180820180806000811215610bb957195b607f1c15610bc657600080fd5b905090509050815250610180516101c0511415610c0d5761034080516102c05180820380806000811215610bf657195b607f1c15610c0357600080fd5b9050905090508152505b6103405160076101805160e05260c052604060c020555b426101c0511115610c8457610180516101c0511115610c835761036080516102c05180820380806000811215610c5657195b607f1c15610c6357600080fd5b9050905090508152506103605160076101c05160e05260c052604060c020555b5b60066101405160e05260c052604060c020546001818183011015610ca757600080fd5b80820190509050610540526105405160066101405160e05260c052604060c02055426102e052436103005260026101405160e05260c052604060c02060c052602060c020546000811215610cfa57600080fd5b6103205261054051633b9aca008110610d1257600080fd5b60056101405160e05260c052604060c02060c052602060c0200160c052602060c0206102a0805182558060200151600183015580604001516002830155806060015160038301558060800151600483015550505b6101e051565b600015611014575b610200526101405261016052610180526101a0526101c0526101e0526102206101a080518252806020015182602001525050600154610260526102605161016051818183011015610dc457600080fd5b8082019050905060015561028061022080518252806020015182602001525050610220805161016051604051811115610dfc57600080fd5b80820180806000811215610e0c57195b607f1c15610e1957600080fd5b9050905090508152506000610180511815610e375761018051610240525b60026101405160e05260c052604060c02060c052602060c020610220805182558060200151600183015550506101405161016051610180516101a0516101c0516101e05161020051610220516102405161026051610280516102a051610140516102c0526102e061028080518252806020015182602001525050610320610220805182528060200151826020015250506103405161032051610300516102e0516102c051600658016103fe565b6102a05261028052610260526102405261022052610200526101e0526101c0526101a0526101805261016052610140526000506000610160511815610f7957602061038060646323b872dd6102c052610140516102e052306103005261016051610320526102dc60006000545af1610f5b57600080fd5b601f3d11610f6857600080fd5b60005061038051610f7857600080fd5b5b610160516102c0526101e0516102e052426103005261024051610140517f4566dfc29f6f11d13a418c26a02bef7c28bae749d4de47e4e6a7cddea6730d5960606102c0a3610260516102c0526102605161016051818183011015610fdc57600080fd5b808201905090506102e0527f5e2aa66efd74cce82b21852e317e5490d9ecc9e6bb953ae24d90851258cc2f5c60406102c0a161020051565b63c2c4c5c160005114156110a45760403661014037604036610180376101405161016051610180516101a05160006101c0526101e061014080518252806020015182602001525050610220610180805182528060200151826020015250506102405161022051610200516101e0516101c051600658016103fe565b6101a052610180526101605261014052600050005b633a46273e600051141561126c5762ffffff54156110c157600080fd5b600162ffffff5560043560a01c156110d857600080fd5b610140600260043560e05260c052604060c0208060c052602060c02054825260018160c052602060c02001548260200152505060006024351161111a57600080fd5b60006101405113151561116c576308c379a06101805260206101a05260166101c0527f4e6f206578697374696e67206c6f636b20666f756e64000000000000000000006101e0526101c050606461019cfd5b42610160511115156111e2576308c379a06101805260206101a05260246101c0527f43616e6e6f742061646420746f2065787069726564206c6f636b2e20576974686101e0527f6472617700000000000000000000000000000000000000000000000000000000610200526101c050608461019cfd5b6101405161016051600435610180526024356101a05260006101c0526101e0600260043560e05260c052604060c0208060c052602060c02054825260018160c052602060c02001548260200152505060006102205261022051610200516101e0516101c0516101a0516101805160065801610d74565b6101605261014052600050600062ffffff55005b6365fc387360005114156114be5762ffffff541561128957600080fd5b600162ffffff55336101405261014051600658016101f7565b60005060243562093a808082049050905062093a8080820282158284830414176112cb57600080fd5b809050905090506101405261016060023360e05260c052604060c0208060c052602060c02054825260018160c052602060c02001548260200152505060006004351161131657600080fd5b61016051151515611366576308c379a06101a05260206101c05260196101e0527f5769746864726177206f6c6420746f6b656e7320666972737400000000000000610200526101e05060646101bcfd5b42610140511115156113dc576308c379a06101a05260206101c05260266101e0527f43616e206f6e6c79206c6f636b20756e74696c2074696d6520696e2074686520610200527f6675747572650000000000000000000000000000000000000000000000000000610220526101e05060846101bcfd5b42630784ce008181830110156113f157600080fd5b808201905090506101405111151515611449576308c379a06101a05260206101c052601e6101e0527f566f74696e67206c6f636b2063616e2062652034207965617273206d61780000610200526101e05060646101bcfd5b610140516101605161018051336101a0526004356101c052610140516101e052610200610160805182528060200151826020015250506001610240526102405161022051610200516101e0516101c0516101a05160065801610d74565b610180526101605261014052600050600062ffffff55005b634957677c600051141561166a5762ffffff54156114db57600080fd5b600162ffffff55336101405261014051600658016101f7565b60005061014060023360e05260c052604060c0208060c052602060c02054825260018160c052602060c02001548260200152505060006004351161153757600080fd5b600061014051131515611589576308c379a06101805260206101a05260166101c0527f4e6f206578697374696e67206c6f636b20666f756e64000000000000000000006101e0526101c050606461019cfd5b42610160511115156115ff576308c379a06101805260206101a05260246101c0527f43616e6e6f742061646420746f2065787069726564206c6f636b2e20576974686101e0527f6472617700000000000000000000000000000000000000000000000000000000610200526101c050608461019cfd5b610140516101605133610180526004356101a05260006101c0526101e06101408051825280602001518260200152505060026102205261022051610200516101e0516101c0516101a0516101805160065801610d74565b6101605261014052600050600062ffffff55005b63eff7a61260005114156118dd5762ffffff541561168757600080fd5b600162ffffff55336101405261014051600658016101f7565b60005061014060023360e05260c052604060c0208060c052602060c02054825260018160c052602060c02001548260200152505060043562093a808082049050905062093a8080820282158284830414176116fa57600080fd5b80905090509050610180524261016051111515611756576308c379a06101a05260206101c052600c6101e0527f4c6f636b20657870697265640000000000000000000000000000000000000000610200526101e05060646101bcfd5b6000610140511315156117a8576308c379a06101a05260206101c05260116101e0527f4e6f7468696e67206973206c6f636b6564000000000000000000000000000000610200526101e05060646101bcfd5b61016051610180511115156117fc576308c379a06101a05260206101c052601f6101e0527f43616e206f6e6c7920696e637265617365206c6f636b206475726174696f6e00610200526101e05060646101bcfd5b42630784ce0081818301101561181157600080fd5b808201905090506101805111151515611869576308c379a06101a05260206101c052601e6101e0527f566f74696e67206c6f636b2063616e2062652034207965617273206d61780000610200526101e05060646101bcfd5b610140516101605161018051336101a05260006101c052610180516101e052610200610140805182528060200151826020015250506003610240526102405161022051610200516101e0516101c0516101a05160065801610d74565b610180526101605261014052600050600062ffffff55005b633ccfd60b6000511415611b775762ffffff54156118fa57600080fd5b600162ffffff5561014060023360e05260c052604060c0208060c052602060c02054825260018160c052602060c0200154826020015250506101605142101515611945576001611949565b600a545b5b1515611995576308c379a06101805260206101a05260166101c0527f546865206c6f636b206469646e277420657870697265000000000000000000006101e0526101c050606461019cfd5b6101405160008112156119a757600080fd5b610180526101a06101408051825280602001518260200152505060006101605260006101405260023360e05260c052604060c02060c052602060c020610140805182558060200151600183015550506001546101e0526101e0516101805180821015611a1257600080fd5b808203905090506001556101405161016051610180516101a0516101c0516101e05133610200526102206101a080518252806020015182602001525050610260610140805182528060200151826020015250506102805161026051610240516102205161020051600658016103fe565b6101e0526101c0526101a05261018052610160526101405260005060206102a0604463a9059cbb610200523361022052610180516102405261021c60006000545af1611acd57600080fd5b601f3d11611ada57600080fd5b6000506102a051611aea57600080fd5b61018051610200524261022052337ff279e6a1f5e320cca91135676d9cb6e44ca8a08c0b88342bcdb1144f6511b5686040610200a26101e051610200526101e0516101805180821015611b3c57600080fd5b80820390509050610220527f5e2aa66efd74cce82b21852e317e5490d9ecc9e6bb953ae24d90851258cc2f5c6040610200a1600062ffffff55005b600015611c8c575b61018052610140526101605260006101a052610160516101c0526101e060006080818352015b6101c0516101a051101515611bb957611c78565b6101a0516101c051818183011015611bd057600080fd5b808201905090506001818183011015611be857600080fd5b8082019050905060028082049050905061020052610140516003610200516c01431e0fae6d7217caa00000008110611c1f57600080fd5b600460c052602060c0200160c052602060c0200154111515611c4857610200516101a052611c67565b61020051600180821015611c5b57600080fd5b808203905090506101c0525b5b8151600101808352811415611ba5575b50506101a051600052600051610180515650005b6370a082316000511415611ca4574261014052611cc9565b62fdd58e6000511415611cc1576020602461014037600050611cc9565b600015611e83575b60043560a01c15611cd957600080fd5b600660043560e05260c052604060c0205461016052610160511515611d0857600060005260206000f350611e81565b61018061016051633b9aca008110611d1f57600080fd5b600560043560e05260c052604060c02060c052602060c020018060c052602060c02054825260018160c052602060c0200154826020015260028160c052602060c0200154826040015260038160c052602060c0200154826060015260048160c052602060c02001548260800152505061018080516101a051610140516101c05180821015611dac57600080fd5b80820390509050604051811115611dc257600080fd5b80820280806000811215611dd257195b607f1c15611ddf57600080fd5b90509050905080820380806000811215611df557195b607f1c15611e0257600080fd5b9050905090508152506000610180511215611e1e576000610180525b610180516000811215611e3057600080fd5b61022052610200516003610220518082028215828483041417611e5257600080fd5b80905090509050818183011015611e6857600080fd5b80820190509050610240526102405160005260206000f3505b005b634ee2cd7e60005114156123f75760043560a01c15611ea157600080fd5b436024351115611eb057600080fd5b600061014052600660043560e05260c052604060c020546101605261018060006080818352015b6101605161014051101515611eeb57611fae565b6101405161016051818183011015611f0257600080fd5b808201905090506001818183011015611f1a57600080fd5b808201905090506002808204905090506101a05260243560036101a051633b9aca008110611f4757600080fd5b600560043560e05260c052604060c02060c052602060c0200160c052602060c0200154111515611f7e576101a05161014052611f9d565b6101a051600180821015611f9157600080fd5b80820390509050610160525b5b8151600101808352811415611ed7575b505061018061014051633b9aca008110611fc757600080fd5b600560043560e05260c052604060c02060c052602060c020018060c052602060c02054825260018160c052602060c0200154826020015260028160c052602060c0200154826040015260038160c052602060c0200154826060015260048160c052602060c020015482608001525050600354610220526101405161016051610180516101a0516101c0516101e051610200516102205161024051602435610260526102205161028052610280516102605160065801611b7f565b6102e0526102405261022052610200526101e0526101c0526101a0526101805261016052610140526102e05161024052610260610240516c01431e0fae6d7217caa000000081106120d157600080fd5b600460c052602060c020018060c052602060c02054825260018160c052602060c0200154826020015260028160c052602060c0200154826040015260038160c052602060c0200154826060015260048160c052602060c02001548260800152505060403661030037610220516102405110156122255761034061024051600181818301101561215f57600080fd5b808201905090506c01431e0fae6d7217caa0000000811061217f57600080fd5b600460c052602060c020018060c052602060c02054825260018160c052602060c0200154826020015260028160c052602060c0200154826040015260038160c052602060c0200154826060015260048160c052602060c0200154826080015250506103a0516102c051808210156121f557600080fd5b8082039050905061030052610380516102a0518082101561221557600080fd5b8082039050905061032052612260565b436102c0518082101561223757600080fd5b8082039050905061030052426102a0518082101561225457600080fd5b80820390509050610320525b6102a0516103405260006103005118156122e2576103408051610320516024356102c0518082101561229157600080fd5b8082039050905080820282158284830414176122ac57600080fd5b809050905090506103005180806122c257600080fd5b8204905090508181830110156122d757600080fd5b808201905090508152505b61018080516101a051610340516101c0518082101561230057600080fd5b8082039050905060405181111561231657600080fd5b8082028080600081121561232657195b607f1c1561233357600080fd5b9050905090508082038080600081121561234957195b607f1c1561235657600080fd5b90509050905081525061018051600081121561237157600080fd5b6103605261020051600361036051808202821582848304141761239357600080fd5b809050905090508181830110156123a957600080fd5b80820190509050610380526000610180511215156123c85760016123d1565b60006102005110155b5b156123e9576103805160005260206000f3506123f5565b600060005260206000f3505b005b60001561263b575b610200526101405261016052610180526101a0526101c0526101e052610220610140805182528060200151826020015280604001518260400152806060015182606001528060800151826080015250506102605162093a808082049050905062093a80808202821582848304141761247657600080fd5b809050905090506102c0526102e0600060ff818352015b6102c0805162093a808181830110156124a557600080fd5b808201905090508152506000610300526101e0516102c05111156124d0576101e0516102c0526124e7565b60076102c05160e05260c052604060c02054610300525b6102208051610240516102c051610260518082101561250557600080fd5b8082039050905060405181111561251b57600080fd5b8082028080600081121561252b57195b607f1c1561253857600080fd5b9050905090508082038080600081121561254e57195b607f1c1561255b57600080fd5b9050905090508152506101e0516102c0511415612577576125bf565b6102408051610300518082018080600081121561259057195b607f1c1561259d57600080fd5b9050905090508152506102c051610260525b815160010180835281141561248d575b505060006102205112156125d4576000610220525b6102205160008112156125e657600080fd5b6102e0526102a05160036102e051808202821582848304141761260857600080fd5b8090509050905081818301101561261e57600080fd5b808201905090506103005261030051600052600051610200515650005b6318160ddd6000511415612653574261014052612679565b63bd85b0396000511415612671576020600461014037600050612679565b6000156127a9575b60035461016052610180610160516c01431e0fae6d7217caa000000081106126a057600080fd5b600460c052602060c020018060c052602060c02054825260018160c052602060c0200154826020015260028160c052602060c0200154826040015260038160c052602060c0200154826060015260048160c052602060c0200154826080015250506101405161016051610180516101a0516101c0516101e0516102005161022061018080518252806020015182602001528060400151826040015280606001518260600152806080015182608001525050610140516102c0526102c0516102a05161028051610260516102405161022051600658016123ff565b61032052610200526101e0526101c0526101a0526101805261016052610140526103205160005260206000f350005b63981b24d06000511415612b22574360043511156127c657600080fd5b60035461014052610140516101605160043561018052610140516101a0526101a0516101805160065801611b7f565b6102005261016052610140526102005161016052610180610160516c01431e0fae6d7217caa0000000811061282957600080fd5b600460c052602060c020018060c052602060c02054825260018160c052602060c0200154826020015260028160c052602060c0200154826040015260038160c052602060c0200154826060015260048160c052602060c020015482608001525050600061022052610140516101605110156129ce576102406101605160018181830110156128b657600080fd5b808201905090506c01431e0fae6d7217caa000000081106128d657600080fd5b600460c052602060c020018060c052602060c02054825260018160c052602060c0200154826020015260028160c052602060c0200154826040015260038160c052602060c0200154826060015260048160c052602060c0200154826080015250506102a0516101e05118156129c9576004356101e0518082101561295957600080fd5b80820390509050610280516101c0518082101561297557600080fd5b80820390509050808202821582848304141761299057600080fd5b809050905090506102a0516101e051808210156129ac57600080fd5b8082039050905080806129be57600080fd5b820490509050610220525b612a58565b436101e0511815612a57576004356101e051808210156129ed57600080fd5b80820390509050426101c05180821015612a0657600080fd5b808203905090508082028215828483041417612a2157600080fd5b80905090509050436101e05180821015612a3a57600080fd5b808203905090508080612a4c57600080fd5b820490509050610220525b5b6101405161016051610180516101a0516101c0516101e0516102005161022051610240610180805182528060200151826020015280604001518260400152806060015182606001528060800151826080015250506101c05161022051818183011015612ac357600080fd5b808201905090506102e0526102e0516102c0516102a051610280516102605161024051600658016123ff565b6103405261022052610200526101e0526101c0526101a0526101805261016052610140526103405160005260206000f350005b63704b96c06000511415612b755760206101c060246370a0823161014052306101605261015c6000545afa612b5657600080fd5b601f3d11612b6357600080fd5b6000506101c05160005260206000f350005b63ff4808ce6000511415612c6557436004351115612b9257600080fd5b60035461014052610140516101605160043561018052610140516101a0526101a0516101805160065801611b7f565b6102005261016052610140526102005161016052610180610160516c01431e0fae6d7217caa00000008110612bf557600080fd5b600460c052602060c020018060c052602060c02054825260018160c052602060c0200154826020015260028160c052602060c0200154826040015260038160c052602060c0200154826060015260048160c052602060c0200154826080015250506102005160005260206000f350005b633cebb8236000511415612c995760043560a01c15612c8357600080fd5b6008543314612c9157600080fd5b600435600855005b63fc0c546a6000511415612cb55760005460005260206000f350005b63047fc9aa6000511415612cd15760015460005260206000f350005b63cbf9fe5f6000511415612d405760043560a01c15612cef57600080fd5b600260043560e05260c052604060c0206101408080808460c052602060c0205481525050602081019050808060018560c052602060c02001548152505060409050905060c05260c051610140f39050005b63900cf0cf6000511415612d5c5760035460005260206000f350005b63d1febfb96000511415612e1d576004356c01431e0fae6d7217caa00000008110612d8657600080fd5b600460c052602060c020016101408080808460c052602060c0205481525050602081019050808060018560c052602060c020015481525050602081019050808060028560c052602060c020015481525050602081019050808060038560c052602060c020015481525050602081019050808060048560c052602060c02001548152505060a09050905060c05260c051610140f39050005b6328d09d476000511415612ef35760043560a01c15612e3b57600080fd5b602435633b9aca008110612e4e57600080fd5b600560043560e05260c052604060c02060c052602060c020016101408080808460c052602060c0205481525050602081019050808060018560c052602060c020015481525050602081019050808060028560c052602060c020015481525050602081019050808060038560c052602060c020015481525050602081019050808060048560c052602060c02001548152505060a09050905060c05260c051610140f39050005b63010ae7576000511415612f2d5760043560a01c15612f1157600080fd5b600660043560e05260c052604060c0205460005260206000f350005b63711974846000511415612f5757600760043560e05260c052604060c0205460005260206000f350005b63f77c47916000511415612f735760085460005260206000f350005b63bef97c876000511415612f8f5760095460005260206000f350005b63f89464856000511415612fab57600a5460005260206000f350005b6306fdde03600051141561305457600b8060c052602060c020610180602082540161012060006003818352015b82610120516020021115612feb5761300d565b61012051850154610120516020028501525b8151600101808352811415612fd8575b50505050505061018051806101a001818260206001820306601f82010390500336823750506020610160526040610180510160206001820306601f8201039050610160f350005b6395d89b4160005114156130fd57600c8060c052602060c020610180602082540161012060006002818352015b82610120516020021115613094576130b6565b61012051850154610120516020028501525b8151600101808352811415613081575b50505050505061018051806101a001818260206001820306601f82010390500336823750506020610160526040610180510160206001820306601f8201039050610160f350005b6354fd4d5060005114156131a657600d8060c052602060c020610180602082540161012060006002818352015b8261012051602002111561313d5761315f565b61012051850154610120516020028501525b815160010180835281141561312a575b50505050505061018051806101a001818260206001820306601f82010390500336823750506020610160526040610180510160206001820306601f8201039050610160f350005b63313ce56760005114156131c257600e5460005260206000f350005b638ff36fd160005114156131de57600f5460005260206000f350005b637175d4f760005114156131fa5760105460005260206000f350005b63f851a44060005114156132165760115460005260206000f350005b6317f7182a60005114156132325760125460005260206000f350005b5b60006000fd5b6102986134d1036102986000396102986134d1036000f3"
}