{
  "address": "0xBFf1365cF0A67431484c00C63bf14cFD9ABBce5D",
  "abi": [
    {
      "inputs": [
        {
          "internalType": "contract IIQERC20",
          "name": "iQ",
          "type": "address"
        },
        {
          "internalType": "contract IERC20",
          "name": "wrappedIQ",
          "type": "address"
        }
      ],
      "stateMutability": "nonpayable",
      "type": "constructor"
    },
    {
      "anonymous": false,
      "inputs": [
        {
          "indexed": false,
          "internalType": "address",
          "name": "_sender",
          "type": "address"
        },
        {
          "indexed": false,
          "internalType": "uint256",
          "name": "_amount",
          "type": "uint256"
        }
      ],
      "name": "Burned",
      "type": "event"
    },
    {
      "anonymous": false,
      "inputs": [
        {
          "indexed": false,
          "internalType": "address",
          "name": "_sender",
          "type": "address"
        },
        {
          "indexed": false,
          "internalType": "uint256",
          "name": "_amount",
          "type": "uint256"
        }
      ],
      "name": "Minted",
      "type": "event"
    },
    {
      "inputs": [
        {
          "internalType": "uint256",
          "name": "_amount",
          "type": "uint256"
        }
      ],
      "name": "burn",
      "outputs": [],
      "stateMutability": "nonpayable",
      "type": "function"
    },
    {
      "inputs": [],
      "name": "iQ",
      "outputs": [
        {
          "internalType": "address",
          "name": "",
          "type": "address"
        }
      ],
      "stateMutability": "view",
      "type": "function"
    },
    {
      "inputs": [
        {
          "internalType": "uint256",
          "name": "_amount",
          "type": "uint256"
        }
      ],
      "name": "mint",
      "outputs": [],
      "stateMutability": "nonpayable",
      "type": "function"
    },
    {
      "inputs": [
        {
          "internalType": "address",
          "name": "_addr",
          "type": "address"
        },
        {
          "internalType": "uint256",
          "name": "_amount",
          "type": "uint256"
        }
      ],
      "name": "transferWrapped",
      "outputs": [],
      "stateMutability": "nonpayable",
      "type": "function"
    },
    {
      "inputs": [],
      "name": "wrappedIQ",
      "outputs": [
        {
          "internalType": "address",
          "name": "",
          "type": "address"
        }
      ],
      "stateMutability": "view",
      "type": "function"
    }
  ],
  "transactionHash": "0x36a86ef76941e563549f9fe64663ed41ea06aecc2d73cf819d23940350b3c1c2",
  "args": [
    "0x6215dc73D822F5a19Bd9772688A21667546b1918",
    "0xa8a7e24779a858E756BC94d4b80bfb2adE6EEF84"
  ],
  "solcInputHash": "ab423d4b4ff2705e539187758698faf7",
  "bytecode": "0x608060405234801561001057600080fd5b506040516108983803806108988339818101604052604081101561003357600080fd5b508051602090910151600080546001600160a01b039384166001600160a01b0319918216179091556001805493909216921691909117905561081e8061007a6000396000f3fe608060405234801561001057600080fd5b50600436106100675760003560e01c8063189def1611610050578063189def16146100be57806342966c68146100c6578063a0712d68146100e357610067565b806307ca0f271461006c57806314969f031461009a575b600080fd5b6100986004803603604081101561008257600080fd5b506001600160a01b038135169060200135610100565b005b6100a261036a565b604080516001600160a01b039092168252519081900360200190f35b6100a2610379565b610098600480360360208110156100dc57600080fd5b5035610388565b610098600480360360208110156100f957600080fd5b5035610595565b60008054906101000a90046001600160a01b03166001600160a01b0316638da5cb5b6040518163ffffffff1660e01b815260040160206040518083038186803b15801561014c57600080fd5b505afa158015610160573d6000803e3d6000fd5b505050506040513d602081101561017657600080fd5b50516001600160a01b031633146101be5760405162461bcd60e51b81526004018080602001828103825260288152602001806107c16028913960400191505060405180910390fd5b60008054906101000a90046001600160a01b03166001600160a01b031663075461726040518163ffffffff1660e01b815260040160206040518083038186803b15801561020a57600080fd5b505afa15801561021e573d6000803e3d6000fd5b505050506040513d602081101561023457600080fd5b50516001600160a01b0316301415610293576040805162461bcd60e51b815260206004820152601660248201527f4d696e746572206973207374696c6c20696e2075736500000000000000000000604482015290519081900360640190fd5b6001546040805163a9059cbb60e01b81526001600160a01b038581166004830152602482018590529151919092169163a9059cbb9160448083019260209291908290030181600087803b1580156102e957600080fd5b505af11580156102fd573d6000803e3d6000fd5b505050506040513d602081101561031357600080fd5b5051610366576040805162461bcd60e51b815260206004820152601360248201527f5472616e7366657220686173206661696c656400000000000000000000000000604482015290519081900360640190fd5b5050565b6000546001600160a01b031690565b6001546001600160a01b031690565b600154600160a01b900460ff16156103e7576040805162461bcd60e51b815260206004820152601260248201527f436f6e7472616374206973206c6f636b65640000000000000000000000000000604482015290519081900360640190fd5b6001805460ff60a01b1916600160a01b17905560008054604080517f9dc29fac0000000000000000000000000000000000000000000000000000000081523360048201526024810185905290516001600160a01b0390921692639dc29fac9260448084019382900301818387803b15801561046157600080fd5b505af1158015610475573d6000803e3d6000fd5b50506001546040805163a9059cbb60e01b81523360048201526024810186905290516001600160a01b03909216935063a9059cbb92506044808201926020929091908290030181600087803b1580156104cd57600080fd5b505af11580156104e1573d6000803e3d6000fd5b505050506040513d60208110156104f757600080fd5b505161054a576040805162461bcd60e51b815260206004820152601360248201527f5472616e7366657220686173206661696c656400000000000000000000000000604482015290519081900360640190fd5b604080513381526020810183905281517f696de425f79f4a40bc6d2122ca50507f0efbeabbff86a84871b7196ab8ea8df7929181900390910190a1506001805460ff60a01b19169055565b600154600160a01b900460ff16156105f4576040805162461bcd60e51b815260206004820152601260248201527f436f6e7472616374206973206c6f636b65640000000000000000000000000000604482015290519081900360640190fd5b6001805460ff60a01b1916600160a01b1790819055604080517f23b872dd0000000000000000000000000000000000000000000000000000000081523360048201523060248201526044810184905290516001600160a01b03909216916323b872dd916064808201926020929091908290030181600087803b15801561067957600080fd5b505af115801561068d573d6000803e3d6000fd5b505050506040513d60208110156106a357600080fd5b50516106f6576040805162461bcd60e51b815260206004820152601360248201527f5472616e7366657220686173206661696c656400000000000000000000000000604482015290519081900360640190fd5b60008054604080517f40c10f190000000000000000000000000000000000000000000000000000000081523360048201526024810185905290516001600160a01b03909216926340c10f199260448084019382900301818387803b15801561075d57600080fd5b505af1158015610771573d6000803e3d6000fd5b5050604080513381526020810185905281517f30385c845b448a36257a6a1716e6ad2e1bc2cbe333cde1e69fe849ad6511adfe9450908190039091019150a1506001805460ff60a01b1916905556fe4f6e6c79204951206f776e65722063616e207472616e666572207772617070656420746f6b656e73a26469706673582212208f92c74c60721e733c31f0375744d7f9c250a6c64a603598d75c31804f8ca21c64736f6c63430007010033",
  "devdoc": {
    "kind": "dev",
    "methods": {},
    "version": 1
  },
  "userdoc": {
    "kind": "user",
    "methods": {},
    "version": 1
  },
  "storageLayout": {
    "storage": [
      {
        "astId": 1300,
        "contract": "src/Minters/TokenMinter.sol:TokenMinter",
        "label": "_iQ",
        "offset": 0,
        "slot": "0",
        "type": "t_contract(IIQERC20)1256"
      },
      {
        "astId": 1302,
        "contract": "src/Minters/TokenMinter.sol:TokenMinter",
        "label": "_wrappedIQ",
        "offset": 0,
        "slot": "1",
        "type": "t_contract(IERC20)912"
      },
      {
        "astId": 1304,
        "contract": "src/Minters/TokenMinter.sol:TokenMinter",
        "label": "locked",
        "offset": 20,
        "slot": "1",
        "type": "t_bool"
      }
    ],
    "types": {
      "t_bool": {
        "encoding": "inplace",
        "label": "bool",
        "numberOfBytes": "1"
      },
      "t_contract(IERC20)912": {
        "encoding": "inplace",
        "label": "contract IERC20",
        "numberOfBytes": "20"
      },
      "t_contract(IIQERC20)1256": {
        "encoding": "inplace",
        "label": "contract IIQERC20",
        "numberOfBytes": "20"
      }
    }
  }
}