{
  "address": "0x68a613409448E342Ce3AAd0fc390cA5cc0b45f75",
  "abi": [
    {
      "inputs": [
        {
          "internalType": "address",
          "name": "_emittedToken",
          "type": "address"
        },
        {
          "internalType": "address",
          "name": "_hiIQ_address",
          "type": "address"
        }
      ],
      "stateMutability": "nonpayable",
      "type": "constructor"
    },
    {
      "anonymous": false,
      "inputs": [],
      "name": "DefaultInitialization",
      "type": "event"
    },
    {
      "anonymous": false,
      "inputs": [
        {
          "indexed": true,
          "internalType": "address",
          "name": "previousOwner",
          "type": "address"
        },
        {
          "indexed": true,
          "internalType": "address",
          "name": "newOwner",
          "type": "address"
        }
      ],
      "name": "OwnershipTransferred",
      "type": "event"
    },
    {
      "anonymous": false,
      "inputs": [
        {
          "indexed": false,
          "internalType": "address",
          "name": "token",
          "type": "address"
        },
        {
          "indexed": false,
          "internalType": "uint256",
          "name": "amount",
          "type": "uint256"
        }
      ],
      "name": "RecoveredERC20",
      "type": "event"
    },
    {
      "anonymous": false,
      "inputs": [
        {
          "indexed": true,
          "internalType": "address",
          "name": "user",
          "type": "address"
        },
        {
          "indexed": false,
          "internalType": "uint256",
          "name": "yield",
          "type": "uint256"
        },
        {
          "indexed": false,
          "internalType": "address",
          "name": "token_address",
          "type": "address"
        }
      ],
      "name": "YieldCollected",
      "type": "event"
    },
    {
      "anonymous": false,
      "inputs": [
        {
          "indexed": false,
          "internalType": "uint256",
          "name": "newDuration",
          "type": "uint256"
        }
      ],
      "name": "YieldDurationUpdated",
      "type": "event"
    },
    {
      "anonymous": false,
      "inputs": [
        {
          "indexed": false,
          "internalType": "address",
          "name": "token",
          "type": "address"
        },
        {
          "indexed": false,
          "internalType": "uint256",
          "name": "yieldRate",
          "type": "uint256"
        }
      ],
      "name": "YieldPeriodRenewed",
      "type": "event"
    },
    {
      "inputs": [],
      "name": "checkpoint",
      "outputs": [],
      "stateMutability": "nonpayable",
      "type": "function"
    },
    {
      "inputs": [
        {
          "internalType": "address",
          "name": "account",
          "type": "address"
        }
      ],
      "name": "earned",
      "outputs": [
        {
          "internalType": "uint256",
          "name": "",
          "type": "uint256"
        }
      ],
      "stateMutability": "view",
      "type": "function"
    },
    {
      "inputs": [
        {
          "internalType": "address",
          "name": "account",
          "type": "address"
        }
      ],
      "name": "eligibleCurrentHiIQ",
      "outputs": [
        {
          "internalType": "uint256",
          "name": "eligible_hiiq_bal",
          "type": "uint256"
        },
        {
          "internalType": "uint256",
          "name": "current_ending_timestamp",
          "type": "uint256"
        }
      ],
      "stateMutability": "view",
      "type": "function"
    },
    {
      "inputs": [],
      "name": "emittedToken",
      "outputs": [
        {
          "internalType": "contract ERC20",
          "name": "",
          "type": "address"
        }
      ],
      "stateMutability": "view",
      "type": "function"
    },
    {
      "inputs": [],
      "name": "emitted_token_address",
      "outputs": [
        {
          "internalType": "address",
          "name": "",
          "type": "address"
        }
      ],
      "stateMutability": "view",
      "type": "function"
    },
    {
      "inputs": [],
      "name": "fractionParticipating",
      "outputs": [
        {
          "internalType": "uint256",
          "name": "",
          "type": "uint256"
        }
      ],
      "stateMutability": "view",
      "type": "function"
    },
    {
      "inputs": [],
      "name": "getYield",
      "outputs": [
        {
          "internalType": "uint256",
          "name": "yield0",
          "type": "uint256"
        }
      ],
      "stateMutability": "nonpayable",
      "type": "function"
    },
    {
      "inputs": [],
      "name": "getYieldForDuration",
      "outputs": [
        {
          "internalType": "uint256",
          "name": "",
          "type": "uint256"
        }
      ],
      "stateMutability": "view",
      "type": "function"
    },
    {
      "inputs": [
        {
          "internalType": "address",
          "name": "",
          "type": "address"
        }
      ],
      "name": "greylist",
      "outputs": [
        {
          "internalType": "bool",
          "name": "",
          "type": "bool"
        }
      ],
      "stateMutability": "view",
      "type": "function"
    },
    {
      "inputs": [
        {
          "internalType": "address",
          "name": "_address",
          "type": "address"
        }
      ],
      "name": "greylistAddress",
      "outputs": [],
      "stateMutability": "nonpayable",
      "type": "function"
    },
    {
      "inputs": [],
      "name": "initializeDefault",
      "outputs": [],
      "stateMutability": "nonpayable",
      "type": "function"
    },
    {
      "inputs": [],
      "name": "lastTimeYieldApplicable",
      "outputs": [
        {
          "internalType": "uint256",
          "name": "",
          "type": "uint256"
        }
      ],
      "stateMutability": "view",
      "type": "function"
    },
    {
      "inputs": [],
      "name": "lastUpdateTime",
      "outputs": [
        {
          "internalType": "uint256",
          "name": "",
          "type": "uint256"
        }
      ],
      "stateMutability": "view",
      "type": "function"
    },
    {
      "inputs": [],
      "name": "min_lock_time_for_yield",
      "outputs": [
        {
          "internalType": "uint256",
          "name": "",
          "type": "uint256"
        }
      ],
      "stateMutability": "view",
      "type": "function"
    },
    {
      "inputs": [],
      "name": "owner",
      "outputs": [
        {
          "internalType": "address",
          "name": "",
          "type": "address"
        }
      ],
      "stateMutability": "view",
      "type": "function"
    },
    {
      "inputs": [],
      "name": "periodFinish",
      "outputs": [
        {
          "internalType": "uint256",
          "name": "",
          "type": "uint256"
        }
      ],
      "stateMutability": "view",
      "type": "function"
    },
    {
      "inputs": [
        {
          "internalType": "address",
          "name": "tokenAddress",
          "type": "address"
        },
        {
          "internalType": "uint256",
          "name": "tokenAmount",
          "type": "uint256"
        }
      ],
      "name": "recoverERC20",
      "outputs": [],
      "stateMutability": "nonpayable",
      "type": "function"
    },
    {
      "inputs": [],
      "name": "renounceOwnership",
      "outputs": [],
      "stateMutability": "nonpayable",
      "type": "function"
    },
    {
      "inputs": [
        {
          "internalType": "uint256",
          "name": "_min_lock_time_for_yield",
          "type": "uint256"
        }
      ],
      "name": "setMinLockTimeForYield",
      "outputs": [],
      "stateMutability": "nonpayable",
      "type": "function"
    },
    {
      "inputs": [
        {
          "internalType": "bool",
          "name": "_yieldCollectionPaused",
          "type": "bool"
        }
      ],
      "name": "setPauses",
      "outputs": [],
      "stateMutability": "nonpayable",
      "type": "function"
    },
    {
      "inputs": [
        {
          "internalType": "uint256",
          "name": "_yieldDuration",
          "type": "uint256"
        }
      ],
      "name": "setYieldDuration",
      "outputs": [],
      "stateMutability": "nonpayable",
      "type": "function"
    },
    {
      "inputs": [
        {
          "internalType": "uint256",
          "name": "_new_rate0",
          "type": "uint256"
        },
        {
          "internalType": "bool",
          "name": "sync_too",
          "type": "bool"
        }
      ],
      "name": "setYieldRate",
      "outputs": [],
      "stateMutability": "nonpayable",
      "type": "function"
    },
    {
      "inputs": [],
      "name": "sync",
      "outputs": [],
      "stateMutability": "nonpayable",
      "type": "function"
    },
    {
      "inputs": [],
      "name": "totalHiIQParticipating",
      "outputs": [
        {
          "internalType": "uint256",
          "name": "",
          "type": "uint256"
        }
      ],
      "stateMutability": "view",
      "type": "function"
    },
    {
      "inputs": [],
      "name": "totalHiIQSupplyStored",
      "outputs": [
        {
          "internalType": "uint256",
          "name": "",
          "type": "uint256"
        }
      ],
      "stateMutability": "view",
      "type": "function"
    },
    {
      "inputs": [
        {
          "internalType": "address",
          "name": "newOwner",
          "type": "address"
        }
      ],
      "name": "transferOwnership",
      "outputs": [],
      "stateMutability": "nonpayable",
      "type": "function"
    },
    {
      "inputs": [
        {
          "internalType": "address",
          "name": "",
          "type": "address"
        }
      ],
      "name": "userHiIQCheckpointed",
      "outputs": [
        {
          "internalType": "uint256",
          "name": "",
          "type": "uint256"
        }
      ],
      "stateMutability": "view",
      "type": "function"
    },
    {
      "inputs": [
        {
          "internalType": "address",
          "name": "",
          "type": "address"
        }
      ],
      "name": "userHiIQEndpointCheckpointed",
      "outputs": [
        {
          "internalType": "uint256",
          "name": "",
          "type": "uint256"
        }
      ],
      "stateMutability": "view",
      "type": "function"
    },
    {
      "inputs": [
        {
          "internalType": "address",
          "name": "",
          "type": "address"
        }
      ],
      "name": "userIsInitialized",
      "outputs": [
        {
          "internalType": "bool",
          "name": "",
          "type": "bool"
        }
      ],
      "stateMutability": "view",
      "type": "function"
    },
    {
      "inputs": [
        {
          "internalType": "address",
          "name": "",
          "type": "address"
        }
      ],
      "name": "userYieldPerTokenPaid",
      "outputs": [
        {
          "internalType": "uint256",
          "name": "",
          "type": "uint256"
        }
      ],
      "stateMutability": "view",
      "type": "function"
    },
    {
      "inputs": [],
      "name": "yieldCollectionPaused",
      "outputs": [
        {
          "internalType": "bool",
          "name": "",
          "type": "bool"
        }
      ],
      "stateMutability": "view",
      "type": "function"
    },
    {
      "inputs": [],
      "name": "yieldDuration",
      "outputs": [
        {
          "internalType": "uint256",
          "name": "",
          "type": "uint256"
        }
      ],
      "stateMutability": "view",
      "type": "function"
    },
    {
      "inputs": [],
      "name": "yieldPerHiIQ",
      "outputs": [
        {
          "internalType": "uint256",
          "name": "",
          "type": "uint256"
        }
      ],
      "stateMutability": "view",
      "type": "function"
    },
    {
      "inputs": [],
      "name": "yieldPerHiIQStored",
      "outputs": [
        {
          "internalType": "uint256",
          "name": "",
          "type": "uint256"
        }
      ],
      "stateMutability": "view",
      "type": "function"
    },
    {
      "inputs": [],
      "name": "yieldRate",
      "outputs": [
        {
          "internalType": "uint256",
          "name": "",
          "type": "uint256"
        }
      ],
      "stateMutability": "view",
      "type": "function"
    },
    {
      "inputs": [
        {
          "internalType": "address",
          "name": "",
          "type": "address"
        }
      ],
      "name": "yields",
      "outputs": [
        {
          "internalType": "uint256",
          "name": "",
          "type": "uint256"
        }
      ],
      "stateMutability": "view",
      "type": "function"
    }
  ],
  "transactionHash": "0x12128cd8edf0057f1a7836d9d05945b107a555adb814f69461aa693f50a3decd",
  "args": [
    "0x579CEa1889991f68aCc35Ff5c3dd0621fF29b0C9",
    "0x1bF5457eCAa14Ff63CC89EFd560E251e814E16Ba"
  ],
  "solcInputHash": "635d4527ad437f9d0d6a4bc16f21e5b4",
  "bytecode": "0x608060405262093a8060085562278d006009556000600a819055600d819055600e556013805460ff191690553480156200003857600080fd5b5060405162001c8f38038062001c8f8339810160408190526200005b91620001d9565b60006200006762000126565b600080546001600160a01b0319166001600160a01b0383169081178255604051929350917f8be0079c531659141344cd1fd0a4f28419497f9722a3daafe3b4186f6b6457e0908290a35060018055600480546001600160a01b03199081166001600160a01b03858116918217909355600380548316909117905560028054909116918316919091179055426006556200011a6813c9647e25a99400006301e133806200012a602090811b62000f3217901c565b60075550620002689050565b3390565b60006200017483836040518060400160405280601a81526020017f536166654d6174683a206469766973696f6e206279207a65726f0000000000008152506200017d60201b60201c565b90505b92915050565b60008183620001aa5760405162461bcd60e51b8152600401620001a1919062000212565b60405180910390fd5b506000838581620001b757fe5b0495945050505050565b80516001600160a01b03811681146200017757600080fd5b60008060408385031215620001ec578182fd5b620001f88484620001c1565b9150620002098460208501620001c1565b90509250929050565b6000602080835283518082850152825b81811015620002405785810183015185820160400152820162000222565b81811115620002525783604083870101525b50601f01601f1916929092016040019392505050565b611a1780620002786000396000f3fe608060405234801561001057600080fd5b506004361061025b5760003560e01c806374ea0b9811610145578063c2c4c5c1116100bd578063ebe2b12b1161008c578063f40c1ca711610071578063f40c1ca714610442578063fc939bb114610455578063fff6cae91461045d5761025b565b8063ebe2b12b14610427578063f2fde38b1461042f5761025b565b8063c2c4c5c114610407578063c8f33c911461040f578063e172cf2114610417578063e9218ff61461041f5761025b565b806391519bda11610114578063948e25a2116100f9578063948e25a2146103d9578063a875f472146103ec578063ad1148cb146103ff5761025b565b806391519bda146103b3578063941d9f65146103c65761025b565b806374ea0b981461037d5780637c262871146103905780638980f11f146103985780638da5cb5b146103ab5761025b565b806338359fc2116101d85780635210149e116101a757806356d9fff31161018c57806356d9fff3146103655780636999ac931461036d578063715018a6146103755761025b565b80635210149e14610355578063561fd7121461035d5761025b565b806338359fc21461031257806339b857be1461032757806350fe98ac1461033a5780635169a7a11461034d5761025b565b806314b305371161022f57806319aec6d21161021457806319aec6d2146102ef57806322415660146102f757806331ca208c146102ff5761025b565b806314b30537146102c5578063169d27ef146102e55761025b565b80628cc2621461026057806302be7f8e146102895780630dc0344a1461029c57806310dbd9d7146102a4575b600080fd5b61027361026e3660046114a4565b610465565b6040516102809190611979565b60405180910390f35b6102736102973660046114a4565b610559565b61027361056b565b6102b76102b23660046114a4565b610571565b604051610280929190611999565b6102d86102d33660046114a4565b61072e565b6040516102809190611622565b6102ed610743565b005b61027361085b565b61027361087a565b6102d861030d3660046114a4565b610880565b61031a610895565b60405161028091906115f5565b6102ed61033536600461157a565b6108a4565b6102736103483660046114a4565b6108de565b6102736108f0565b61027361094b565b610273610951565b610273610957565b610273610965565b6102ed61096b565b6102ed61038b36600461157a565b6109f7565b610273610a98565b6102ed6103a63660046114bf565b610bb2565b61031a610c36565b6102ed6103c13660046115aa565b610c45565b6102ed6103d43660046114a4565b610c91565b6102ed6103e73660046114e9565b610cef565b6102736103fa3660046114a4565b610d37565b6102d8610d49565b6102ed610d52565b610273610d5d565b610273610d63565b61031a610d69565b610273610d78565b6102ed61043d3660046114a4565b610d7e565b6102736104503660046114a4565b610e41565b610273610e53565b6102ed610e73565b6001600160a01b0381166000908152600f602052604081205460ff1661048d57506000610554565b60006104976108f0565b6001600160a01b0384166000908152601060205260408120549192506104bc85610571565b509050806104d05760009350505050610554565b6000828211156104e15750816104f9565b6104f660026104f08486610f7d565b90610f32565b90505b6001600160a01b0386166000908152600c6020908152604080832054600b9092529091205461054d919061054790670de0b6b3a7640000906104f090610540908a90610fa2565b8690610fe4565b90610f7d565b9450505050505b919050565b60116020526000908152604090205481565b600d5481565b6002546040516370a0823160e01b8152600091829182916001600160a01b0316906370a08231906105a69087906004016115f5565b60206040518083038186803b1580156105be57600080fd5b505afa1580156105d2573d6000803e3d6000fd5b505050506040513d601f19601f820116820180604052508101906105f69190611592565b9050610600611476565b6002546040517fcbf9fe5f0000000000000000000000000000000000000000000000000000000081526001600160a01b039091169063cbf9fe5f906106499088906004016115f5565b604080518083038186803b15801561066057600080fd5b505afa158015610674573d6000803e3d6000fd5b505050506040513d601f19601f820116820180604052508101906106989190611521565b6020808201516001600160a01b03881660009081526011909252604090912054909450909150158015906106e457506001600160a01b0385166000908152601160205260409020544210155b156106f25760009350610727565b8242106107025760009350610727565b60095460208201516107149042610fa2565b10156107235760009350610727565b8193505b5050915091565b600f6020526000908152604090205460ff1681565b61074b61101e565b6000546001600160a01b039081169116146107815760405162461bcd60e51b81526004016107789061188a565b60405180910390fd5b4260068190556008546107949190610f7d565b600555600254604080517f18160ddd00000000000000000000000000000000000000000000000000000000815290516001600160a01b03909216916318160ddd91600480820192602092909190829003018186803b1580156107f557600080fd5b505afa158015610809573d6000803e3d6000fd5b505050506040513d601f19601f8201168201806040525081019061082d9190611592565b600e556040517fb5cfe3ccd03847076864f081609024cbc2eb98c38da4d8b2cebe9479a9a1ef3790600090a1565b6000610874600854600754610fe490919063ffffffff16565b90505b90565b600e5481565b60126020526000908152604090205460ff1681565b6004546001600160a01b031681565b6108ac61101e565b6000546001600160a01b039081169116146108d95760405162461bcd60e51b81526004016107789061188a565b600955565b600c6020526000908152604090205481565b6000600e54600014156109065750600a54610877565b61094461093b600e546104f0670de0b6b3a764000061093560075461093560065461092f610957565b90610fa2565b90610fe4565b600a5490610f7d565b9050610877565b60095481565b600a5481565b600061087442600554611022565b60075481565b61097361101e565b6000546001600160a01b039081169116146109a05760405162461bcd60e51b81526004016107789061188a565b600080546040516001600160a01b03909116907f8be0079c531659141344cd1fd0a4f28419497f9722a3daafe3b4186f6b6457e0908390a36000805473ffffffffffffffffffffffffffffffffffffffff19169055565b6109ff61101e565b6000546001600160a01b03908116911614610a2c5760405162461bcd60e51b81526004016107789061188a565b6005541580610a3c575060055442115b610a585760405162461bcd60e51b8152600401610778906118bf565b60088190556040517fce653f06b9044b00e7d9d01b9b4228e84812092cb6a38371889bef19370d21f790610a8d908390611979565b60405180910390a150565b600060026001541415610abd5760405162461bcd60e51b815260040161077890611942565b600260015560135460ff1615610ae55760405162461bcd60e51b815260040161077890611762565b33610aef81611038565b3360009081526012602052604090205460ff1615610b1f5760405162461bcd60e51b8152600401610778906117f6565b336000908152600c602052604090205491508115610baa57336000818152600c6020526040812055600454610b60916001600160a01b039091169084611131565b60045460405133917f3998039806f6db7e5d83a5371638cc47dd2e9ae500d5d561d95ec6381f53e3cd91610ba19186916001600160a01b0390911690611982565b60405180910390a25b506001805590565b610bba61101e565b6000546001600160a01b03908116911614610be75760405162461bcd60e51b81526004016107789061188a565b610bf982610bf3610c36565b83611131565b7f55350610fe57096d8c0ffa30beede987326bccfcb0b4415804164d0dd50ce8b18282604051610c2a929190611609565b60405180910390a15050565b6000546001600160a01b031690565b610c4d61101e565b6000546001600160a01b03908116911614610c7a5760405162461bcd60e51b81526004016107789061188a565b60078290558015610c8d57610c8d610e73565b5050565b610c9961101e565b6000546001600160a01b03908116911614610cc65760405162461bcd60e51b81526004016107789061188a565b6001600160a01b03166000908152601260205260409020805460ff19811660ff90911615179055565b610cf761101e565b6000546001600160a01b03908116911614610d245760405162461bcd60e51b81526004016107789061188a565b6013805460ff1916911515919091179055565b600b6020526000908152604090205481565b60135460ff1681565b610d5b33611038565b565b60065481565b60085481565b6003546001600160a01b031681565b60055481565b610d8661101e565b6000546001600160a01b03908116911614610db35760405162461bcd60e51b81526004016107789061188a565b6001600160a01b038116610dd95760405162461bcd60e51b815260040161077890611697565b600080546040516001600160a01b03808516939216917f8be0079c531659141344cd1fd0a4f28419497f9722a3daafe3b4186f6b6457e091a36000805473ffffffffffffffffffffffffffffffffffffffff19166001600160a01b0392909216919091179055565b60106020526000908152604090205481565b6000610874600e546104f0620f4240600d54610fe490919063ffffffff16565b600260009054906101000a90046001600160a01b03166001600160a01b03166318160ddd6040518163ffffffff1660e01b815260040160206040518083038186803b158015610ec157600080fd5b505afa158015610ed5573d6000803e3d6000fd5b505050506040513d601f19601f82011682018060405250810190610ef99190611592565b600e55600554421115610f1357610f0e611234565b610d5b565b6000610f1d6108f0565b600a8190559050610f2c610957565b60065550565b6000610f7483836040518060400160405280601a81526020017f536166654d6174683a206469766973696f6e206279207a65726f0000000000008152506113c9565b90505b92915050565b600082820183811015610f745760405162461bcd60e51b8152600401610778906116f4565b6000610f7483836040518060400160405280601e81526020017f536166654d6174683a207375627472616374696f6e206f766572666c6f770000815250611400565b600082610ff357506000610f77565b8282028284828161100057fe5b0414610f745760405162461bcd60e51b81526004016107789061182d565b3390565b60008183106110315781610f74565b5090919050565b611040610e73565b6110498161142c565b6001600160a01b038116600090815260106020526040812054908061106d84610571565b6001600160a01b03861660009081526010602090815260408083208590556011909152902081905590925090508282106110c65760006110ad8385610fa2565b600d549091506110bd9082610f7d565b600d55506110e7565b60006110d28484610fa2565b600d549091506110e29082610fa2565b600d55505b6001600160a01b0384166000908152600f602052604090205460ff1661112b576001600160a01b0384166000908152600f60205260409020805460ff191660011790555b50505050565b60006060846001600160a01b031663a9059cbb8585604051602401611157929190611609565b6040516020818303038152906040529060e01b6020820180517bffffffffffffffffffffffffffffffffffffffffffffffffffffffff83818316178352505050506040516111a591906115d9565b6000604051808303816000865af19150503d80600081146111e2576040519150601f19603f3d011682016040523d82523d6000602084013e6111e7565b606091505b50915091508180156112115750805115806112115750808060200190518101906112119190611505565b61122d5760405162461bcd60e51b815260040161077890611660565b5050505050565b60055442116112555760405162461bcd60e51b81526004016107789061172b565b600060085461126f60055442610fa290919063ffffffff16565b8161127657fe5b6003546040516370a0823160e01b81529290910492506000916001600160a01b03909116906370a08231906112af9030906004016115f5565b60206040518083038186803b1580156112c757600080fd5b505afa1580156112db573d6000803e3d6000fd5b505050506040513d601f19601f820116820180604052508101906112ff9190611592565b90508061132083600101610935600854600754610fe490919063ffffffff16565b111561133e5760405162461bcd60e51b815260040161077890611799565b60085461135d9061135490610935856001610f7d565b60055490610f7d565b600555600061136a6108f0565b600a8190559050611379610957565b6006556004546007546040517fb304aeb00c30205e714696b5e1e78d04e16b0ad608da8c3c700796c1ddea6367926113bc926001600160a01b0390911691611609565b60405180910390a1505050565b600081836113ea5760405162461bcd60e51b8152600401610778919061162d565b5060008385816113f657fe5b0495945050505050565b600081848411156114245760405162461bcd60e51b8152600401610778919061162d565b505050900390565b6001600160a01b0381161561147357600061144682610465565b6001600160a01b0383166000908152600c6020908152604080832093909355600a54600b90915291902055505b50565b604080518082019091526000808252602082015290565b80356001600160a01b0381168114610f7757600080fd5b6000602082840312156114b5578081fd5b610f74838361148d565b600080604083850312156114d1578081fd5b6114db848461148d565b946020939093013593505050565b6000602082840312156114fa578081fd5b8135610f74816119d3565b600060208284031215611516578081fd5b8151610f74816119d3565b600060408284031215611532578081fd5b6040516040810181811067ffffffffffffffff82111715611551578283fd5b6040528251600f81900b8114611565578283fd5b81526020928301519281019290925250919050565b60006020828403121561158b578081fd5b5035919050565b6000602082840312156115a3578081fd5b5051919050565b600080604083850312156115bc578182fd5b8235915060208301356115ce816119d3565b809150509250929050565b600082516115eb8184602087016119a7565b9190910192915050565b6001600160a01b0391909116815260200190565b6001600160a01b03929092168252602082015260400190565b901515815260200190565b600060208252825180602084015261164c8160408501602087016119a7565b601f01601f19169190910160400192915050565b6020808252601f908201527f5472616e7366657248656c7065723a205452414e534645525f4641494c454400604082015260600190565b60208082526026908201527f4f776e61626c653a206e6577206f776e657220697320746865207a65726f206160408201527f6464726573730000000000000000000000000000000000000000000000000000606082015260800190565b6020808252601b908201527f536166654d6174683a206164646974696f6e206f766572666c6f770000000000604082015260600190565b6020808252601b908201527f506572696f6420686173206e6f74206578706972656420796574210000000000604082015260600190565b6020808252601a908201527f5969656c6420636f6c6c656374696f6e20697320706175736564000000000000604082015260600190565b60208082526039908201527f4e6f7420656e6f75676820656d6974746564546f6b656e20617661696c61626c60408201527f6520666f72207969656c6420646973747269627574696f6e2100000000000000606082015260800190565b6020808252601b908201527f4164647265737320686173206265656e20677265796c69737465640000000000604082015260600190565b60208082526021908201527f536166654d6174683a206d756c7469706c69636174696f6e206f766572666c6f60408201527f7700000000000000000000000000000000000000000000000000000000000000606082015260800190565b6020808252818101527f4f776e61626c653a2063616c6c6572206973206e6f7420746865206f776e6572604082015260600190565b60208082526056908201527f50726576696f7573207969656c6420706572696f64206d75737420626520636f60408201527f6d706c657465206265666f7265206368616e67696e672074686520647572617460608201527f696f6e20666f7220746865206e657720706572696f6400000000000000000000608082015260a00190565b6020808252601f908201527f5265656e7472616e637947756172643a207265656e7472616e742063616c6c00604082015260600190565b90815260200190565b9182526001600160a01b0316602082015260400190565b918252602082015260400190565b60005b838110156119c25781810151838201526020016119aa565b8381111561112b5750506000910152565b801515811461147357600080fdfea26469706673582212200170beee03fd6199549667b23696358a0976ae3567e18a3539dddc25279b107264736f6c63430007010033",
  "devdoc": {
    "kind": "dev",
    "methods": {
      "owner()": {
        "details": "Returns the address of the current owner."
      },
      "renounceOwnership()": {
        "details": "Leaves the contract without owner. It will not be possible to call `onlyOwner` functions anymore. Can only be called by the current owner. NOTE: Renouncing ownership will leave the contract without an owner, thereby removing any functionality that is only available to the owner."
      },
      "transferOwnership(address)": {
        "details": "Transfers ownership of the contract to a new account (`newOwner`). Can only be called by the current owner."
      }
    },
    "version": 1
  },
  "userdoc": {
    "kind": "user",
    "methods": {},
    "version": 1
  },
  "storageLayout": {
    "storage": [
      {
        "astId": 30,
        "contract": "src/Rewards/HiIQRewards.sol:HiIQRewards",
        "label": "_owner",
        "offset": 0,
        "slot": "0",
        "type": "t_address"
      },
      {
        "astId": 1413,
        "contract": "src/Rewards/HiIQRewards.sol:HiIQRewards",
        "label": "_status",
        "offset": 0,
        "slot": "1",
        "type": "t_uint256"
      },
      {
        "astId": 1907,
        "contract": "src/Rewards/HiIQRewards.sol:HiIQRewards",
        "label": "hiIQ",
        "offset": 0,
        "slot": "2",
        "type": "t_contract(IhiIQ)1692"
      },
      {
        "astId": 1909,
        "contract": "src/Rewards/HiIQRewards.sol:HiIQRewards",
        "label": "emittedToken",
        "offset": 0,
        "slot": "3",
        "type": "t_contract(ERC20)907"
      },
      {
        "astId": 1911,
        "contract": "src/Rewards/HiIQRewards.sol:HiIQRewards",
        "label": "emitted_token_address",
        "offset": 0,
        "slot": "4",
        "type": "t_address"
      },
      {
        "astId": 1916,
        "contract": "src/Rewards/HiIQRewards.sol:HiIQRewards",
        "label": "periodFinish",
        "offset": 0,
        "slot": "5",
        "type": "t_uint256"
      },
      {
        "astId": 1918,
        "contract": "src/Rewards/HiIQRewards.sol:HiIQRewards",
        "label": "lastUpdateTime",
        "offset": 0,
        "slot": "6",
        "type": "t_uint256"
      },
      {
        "astId": 1920,
        "contract": "src/Rewards/HiIQRewards.sol:HiIQRewards",
        "label": "yieldRate",
        "offset": 0,
        "slot": "7",
        "type": "t_uint256"
      },
      {
        "astId": 1923,
        "contract": "src/Rewards/HiIQRewards.sol:HiIQRewards",
        "label": "yieldDuration",
        "offset": 0,
        "slot": "8",
        "type": "t_uint256"
      },
      {
        "astId": 1926,
        "contract": "src/Rewards/HiIQRewards.sol:HiIQRewards",
        "label": "min_lock_time_for_yield",
        "offset": 0,
        "slot": "9",
        "type": "t_uint256"
      },
      {
        "astId": 1929,
        "contract": "src/Rewards/HiIQRewards.sol:HiIQRewards",
        "label": "yieldPerHiIQStored",
        "offset": 0,
        "slot": "10",
        "type": "t_uint256"
      },
      {
        "astId": 1933,
        "contract": "src/Rewards/HiIQRewards.sol:HiIQRewards",
        "label": "userYieldPerTokenPaid",
        "offset": 0,
        "slot": "11",
        "type": "t_mapping(t_address,t_uint256)"
      },
      {
        "astId": 1937,
        "contract": "src/Rewards/HiIQRewards.sol:HiIQRewards",
        "label": "yields",
        "offset": 0,
        "slot": "12",
        "type": "t_mapping(t_address,t_uint256)"
      },
      {
        "astId": 1940,
        "contract": "src/Rewards/HiIQRewards.sol:HiIQRewards",
        "label": "totalHiIQParticipating",
        "offset": 0,
        "slot": "13",
        "type": "t_uint256"
      },
      {
        "astId": 1943,
        "contract": "src/Rewards/HiIQRewards.sol:HiIQRewards",
        "label": "totalHiIQSupplyStored",
        "offset": 0,
        "slot": "14",
        "type": "t_uint256"
      },
      {
        "astId": 1947,
        "contract": "src/Rewards/HiIQRewards.sol:HiIQRewards",
        "label": "userIsInitialized",
        "offset": 0,
        "slot": "15",
        "type": "t_mapping(t_address,t_bool)"
      },
      {
        "astId": 1951,
        "contract": "src/Rewards/HiIQRewards.sol:HiIQRewards",
        "label": "userHiIQCheckpointed",
        "offset": 0,
        "slot": "16",
        "type": "t_mapping(t_address,t_uint256)"
      },
      {
        "astId": 1955,
        "contract": "src/Rewards/HiIQRewards.sol:HiIQRewards",
        "label": "userHiIQEndpointCheckpointed",
        "offset": 0,
        "slot": "17",
        "type": "t_mapping(t_address,t_uint256)"
      },
      {
        "astId": 1959,
        "contract": "src/Rewards/HiIQRewards.sol:HiIQRewards",
        "label": "greylist",
        "offset": 0,
        "slot": "18",
        "type": "t_mapping(t_address,t_bool)"
      },
      {
        "astId": 1962,
        "contract": "src/Rewards/HiIQRewards.sol:HiIQRewards",
        "label": "yieldCollectionPaused",
        "offset": 0,
        "slot": "19",
        "type": "t_bool"
      }
    ],
    "types": {
      "t_address": {
        "encoding": "inplace",
        "label": "address",
        "numberOfBytes": "20"
      },
      "t_bool": {
        "encoding": "inplace",
        "label": "bool",
        "numberOfBytes": "1"
      },
      "t_contract(ERC20)907": {
        "encoding": "inplace",
        "label": "contract ERC20",
        "numberOfBytes": "20"
      },
      "t_contract(IhiIQ)1692": {
        "encoding": "inplace",
        "label": "contract IhiIQ",
        "numberOfBytes": "20"
      },
      "t_mapping(t_address,t_bool)": {
        "encoding": "mapping",
        "key": "t_address",
        "label": "mapping(address => bool)",
        "numberOfBytes": "32",
        "value": "t_bool"
      },
      "t_mapping(t_address,t_uint256)": {
        "encoding": "mapping",
        "key": "t_address",
        "label": "mapping(address => uint256)",
        "numberOfBytes": "32",
        "value": "t_uint256"
      },
      "t_uint256": {
        "encoding": "inplace",
        "label": "uint256",
        "numberOfBytes": "32"
      }
    }
  }
}