{
  "address": "0xb55Dcc69d909103b4De773412A22AB8B86e8c602",
  "abi": [
    {
      "inputs": [
        {
          "internalType": "address",
          "name": "_emittedToken",
          "type": "address"
        },
        {
          "internalType": "address",
          "name": "_hiIQ_address",
          "type": "address"
        }
      ],
      "stateMutability": "nonpayable",
      "type": "constructor"
    },
    {
      "anonymous": false,
      "inputs": [],
      "name": "DefaultInitialization",
      "type": "event"
    },
    {
      "anonymous": false,
      "inputs": [
        {
          "indexed": true,
          "internalType": "address",
          "name": "previousOwner",
          "type": "address"
        },
        {
          "indexed": true,
          "internalType": "address",
          "name": "newOwner",
          "type": "address"
        }
      ],
      "name": "OwnershipTransferred",
      "type": "event"
    },
    {
      "anonymous": false,
      "inputs": [
        {
          "indexed": false,
          "internalType": "address",
          "name": "token",
          "type": "address"
        },
        {
          "indexed": false,
          "internalType": "uint256",
          "name": "amount",
          "type": "uint256"
        }
      ],
      "name": "RecoveredERC20",
      "type": "event"
    },
    {
      "anonymous": false,
      "inputs": [
        {
          "indexed": true,
          "internalType": "address",
          "name": "user",
          "type": "address"
        },
        {
          "indexed": false,
          "internalType": "uint256",
          "name": "yield",
          "type": "uint256"
        },
        {
          "indexed": false,
          "internalType": "address",
          "name": "token_address",
          "type": "address"
        }
      ],
      "name": "YieldCollected",
      "type": "event"
    },
    {
      "anonymous": false,
      "inputs": [
        {
          "indexed": false,
          "internalType": "uint256",
          "name": "newDuration",
          "type": "uint256"
        }
      ],
      "name": "YieldDurationUpdated",
      "type": "event"
    },
    {
      "anonymous": false,
      "inputs": [
        {
          "indexed": false,
          "internalType": "address",
          "name": "token",
          "type": "address"
        },
        {
          "indexed": false,
          "internalType": "uint256",
          "name": "yieldRate",
          "type": "uint256"
        }
      ],
      "name": "YieldPeriodRenewed",
      "type": "event"
    },
    {
      "inputs": [],
      "name": "checkpoint",
      "outputs": [],
      "stateMutability": "nonpayable",
      "type": "function"
    },
    {
      "inputs": [
        {
          "internalType": "address",
          "name": "user_addr",
          "type": "address"
        }
      ],
      "name": "checkpointOtherUser",
      "outputs": [],
      "stateMutability": "nonpayable",
      "type": "function"
    },
    {
      "inputs": [
        {
          "internalType": "address",
          "name": "account",
          "type": "address"
        }
      ],
      "name": "earned",
      "outputs": [
        {
          "internalType": "uint256",
          "name": "",
          "type": "uint256"
        }
      ],
      "stateMutability": "view",
      "type": "function"
    },
    {
      "inputs": [],
      "name": "emittedToken",
      "outputs": [
        {
          "internalType": "contract ERC20",
          "name": "",
          "type": "address"
        }
      ],
      "stateMutability": "view",
      "type": "function"
    },
    {
      "inputs": [],
      "name": "emitted_token_address",
      "outputs": [
        {
          "internalType": "address",
          "name": "",
          "type": "address"
        }
      ],
      "stateMutability": "view",
      "type": "function"
    },
    {
      "inputs": [],
      "name": "getYield",
      "outputs": [
        {
          "internalType": "uint256",
          "name": "yield0",
          "type": "uint256"
        }
      ],
      "stateMutability": "nonpayable",
      "type": "function"
    },
    {
      "inputs": [],
      "name": "getYieldForDuration",
      "outputs": [
        {
          "internalType": "uint256",
          "name": "",
          "type": "uint256"
        }
      ],
      "stateMutability": "view",
      "type": "function"
    },
    {
      "inputs": [
        {
          "internalType": "address",
          "name": "",
          "type": "address"
        }
      ],
      "name": "greylist",
      "outputs": [
        {
          "internalType": "bool",
          "name": "",
          "type": "bool"
        }
      ],
      "stateMutability": "view",
      "type": "function"
    },
    {
      "inputs": [
        {
          "internalType": "address",
          "name": "_address",
          "type": "address"
        }
      ],
      "name": "greylistAddress",
      "outputs": [],
      "stateMutability": "nonpayable",
      "type": "function"
    },
    {
      "inputs": [],
      "name": "initializeDefault",
      "outputs": [],
      "stateMutability": "nonpayable",
      "type": "function"
    },
    {
      "inputs": [],
      "name": "lastTimeYieldApplicable",
      "outputs": [
        {
          "internalType": "uint256",
          "name": "",
          "type": "uint256"
        }
      ],
      "stateMutability": "view",
      "type": "function"
    },
    {
      "inputs": [],
      "name": "lastUpdateTime",
      "outputs": [
        {
          "internalType": "uint256",
          "name": "",
          "type": "uint256"
        }
      ],
      "stateMutability": "view",
      "type": "function"
    },
    {
      "inputs": [],
      "name": "owner",
      "outputs": [
        {
          "internalType": "address",
          "name": "",
          "type": "address"
        }
      ],
      "stateMutability": "view",
      "type": "function"
    },
    {
      "inputs": [],
      "name": "periodFinish",
      "outputs": [
        {
          "internalType": "uint256",
          "name": "",
          "type": "uint256"
        }
      ],
      "stateMutability": "view",
      "type": "function"
    },
    {
      "inputs": [
        {
          "internalType": "address",
          "name": "tokenAddress",
          "type": "address"
        },
        {
          "internalType": "uint256",
          "name": "tokenAmount",
          "type": "uint256"
        }
      ],
      "name": "recoverERC20",
      "outputs": [],
      "stateMutability": "nonpayable",
      "type": "function"
    },
    {
      "inputs": [],
      "name": "renounceOwnership",
      "outputs": [],
      "stateMutability": "nonpayable",
      "type": "function"
    },
    {
      "inputs": [
        {
          "internalType": "bool",
          "name": "_yieldCollectionPaused",
          "type": "bool"
        }
      ],
      "name": "setPauses",
      "outputs": [],
      "stateMutability": "nonpayable",
      "type": "function"
    },
    {
      "inputs": [
        {
          "internalType": "uint256",
          "name": "_yieldDuration",
          "type": "uint256"
        }
      ],
      "name": "setYieldDuration",
      "outputs": [],
      "stateMutability": "nonpayable",
      "type": "function"
    },
    {
      "inputs": [
        {
          "internalType": "uint256",
          "name": "_new_rate0",
          "type": "uint256"
        },
        {
          "internalType": "bool",
          "name": "sync_too",
          "type": "bool"
        }
      ],
      "name": "setYieldRate",
      "outputs": [],
      "stateMutability": "nonpayable",
      "type": "function"
    },
    {
      "inputs": [],
      "name": "sync",
      "outputs": [],
      "stateMutability": "nonpayable",
      "type": "function"
    },
    {
      "inputs": [],
      "name": "totalHiIQSupplyStored",
      "outputs": [
        {
          "internalType": "uint256",
          "name": "",
          "type": "uint256"
        }
      ],
      "stateMutability": "view",
      "type": "function"
    },
    {
      "inputs": [
        {
          "internalType": "address",
          "name": "newOwner",
          "type": "address"
        }
      ],
      "name": "transferOwnership",
      "outputs": [],
      "stateMutability": "nonpayable",
      "type": "function"
    },
    {
      "inputs": [
        {
          "internalType": "address",
          "name": "",
          "type": "address"
        }
      ],
      "name": "userHiIQCheckpointed",
      "outputs": [
        {
          "internalType": "uint256",
          "name": "",
          "type": "uint256"
        }
      ],
      "stateMutability": "view",
      "type": "function"
    },
    {
      "inputs": [
        {
          "internalType": "address",
          "name": "",
          "type": "address"
        }
      ],
      "name": "userHiIQEndpointCheckpointed",
      "outputs": [
        {
          "internalType": "uint256",
          "name": "",
          "type": "uint256"
        }
      ],
      "stateMutability": "view",
      "type": "function"
    },
    {
      "inputs": [
        {
          "internalType": "address",
          "name": "",
          "type": "address"
        }
      ],
      "name": "userIsInitialized",
      "outputs": [
        {
          "internalType": "bool",
          "name": "",
          "type": "bool"
        }
      ],
      "stateMutability": "view",
      "type": "function"
    },
    {
      "inputs": [
        {
          "internalType": "address",
          "name": "",
          "type": "address"
        }
      ],
      "name": "userYieldPerTokenPaid",
      "outputs": [
        {
          "internalType": "uint256",
          "name": "",
          "type": "uint256"
        }
      ],
      "stateMutability": "view",
      "type": "function"
    },
    {
      "inputs": [],
      "name": "yieldCollectionPaused",
      "outputs": [
        {
          "internalType": "bool",
          "name": "",
          "type": "bool"
        }
      ],
      "stateMutability": "view",
      "type": "function"
    },
    {
      "inputs": [],
      "name": "yieldDuration",
      "outputs": [
        {
          "internalType": "uint256",
          "name": "",
          "type": "uint256"
        }
      ],
      "stateMutability": "view",
      "type": "function"
    },
    {
      "inputs": [],
      "name": "yieldPerHiIQ",
      "outputs": [
        {
          "internalType": "uint256",
          "name": "",
          "type": "uint256"
        }
      ],
      "stateMutability": "view",
      "type": "function"
    },
    {
      "inputs": [],
      "name": "yieldPerHiIQStored",
      "outputs": [
        {
          "internalType": "uint256",
          "name": "",
          "type": "uint256"
        }
      ],
      "stateMutability": "view",
      "type": "function"
    },
    {
      "inputs": [],
      "name": "yieldRate",
      "outputs": [
        {
          "internalType": "uint256",
          "name": "",
          "type": "uint256"
        }
      ],
      "stateMutability": "view",
      "type": "function"
    },
    {
      "inputs": [
        {
          "internalType": "address",
          "name": "",
          "type": "address"
        }
      ],
      "name": "yields",
      "outputs": [
        {
          "internalType": "uint256",
          "name": "",
          "type": "uint256"
        }
      ],
      "stateMutability": "view",
      "type": "function"
    }
  ],
  "transactionHash": "0x9256fa62d3073d54ccf6584e7c45061cfcc38525caebe82011eac6e97bfc6ec8",
  "args": [
    "0x579CEa1889991f68aCc35Ff5c3dd0621fF29b0C9",
    "0x1bF5457eCAa14Ff63CC89EFd560E251e814E16Ba"
  ],
  "solcInputHash": "2997ceb22aa6b00a5af3303376019f8a",
  "bytecode": "0x608060405262093a8060085560006009819055600c556013805460ff191690553480156200002c57600080fd5b5060405162001d3c38038062001d3c8339810160408190526200004f91620001cd565b60006200005b6200011a565b600080546001600160a01b0319166001600160a01b0383169081178255604051929350917f8be0079c531659141344cd1fd0a4f28419497f9722a3daafe3b4186f6b6457e0908290a35060018055600480546001600160a01b03199081166001600160a01b03858116918217909355600380548316909117905560028054909116918316919091179055426006556200010e6813c9647e25a99400006301e133806200011e602090811b62000f0d17901c565b600755506200025c9050565b3390565b60006200016883836040518060400160405280601a81526020017f536166654d6174683a206469766973696f6e206279207a65726f0000000000008152506200017160201b60201c565b90505b92915050565b600081836200019e5760405162461bcd60e51b815260040162000195919062000206565b60405180910390fd5b506000838581620001ab57fe5b0495945050505050565b80516001600160a01b03811681146200016b57600080fd5b60008060408385031215620001e0578182fd5b620001ec8484620001b5565b9150620001fd8460208501620001b5565b90509250929050565b6000602080835283518082850152825b81811015620002345785810183015185820160400152820162000216565b81811115620002465783604083870101525b50601f01601f1916929092016040019392505050565b611ad0806200026c6000396000f3fe608060405234801561001057600080fd5b50600436106101ef5760003560e01c80638980f11f1161010f578063c2c4c5c1116100a2578063ebe2b12b11610071578063ebe2b12b1461038a578063f2fde38b14610392578063f40c1ca7146103a5578063fff6cae9146103b8576101ef565b8063c2c4c5c11461036a578063c8f33c9114610372578063e172cf211461037a578063e9218ff614610382576101ef565b8063948e25a2116100de578063948e25a2146103295780639f8a835a1461033c578063a875f4721461034f578063ad1148cb14610362576101ef565b80638980f11f146102e85780638da5cb5b146102fb57806391519bda14610303578063941d9f6514610316576101ef565b806350fe98ac116101875780636999ac93116101565780636999ac93146102bd578063715018a6146102c557806374ea0b98146102cd5780637c262871146102e0576101ef565b806350fe98ac146102925780635169a7a1146102a5578063561fd712146102ad57806356d9fff3146102b5576101ef565b806319aec6d2116101c357806319aec6d21461025a578063224156601461026257806331ca208c1461026a57806338359fc21461027d576101ef565b80628cc262146101f457806302be7f8e1461021d57806314b3053714610230578063169d27ef14610250575b600080fd5b610207610202366004611567565b6103c0565b6040516102149190611a3c565b60405180910390f35b61020761022b366004611567565b6106e1565b61024361023e366004611567565b6106f3565b60405161021491906116e5565b610258610708565b005b610207610820565b61020761083f565b610243610278366004611567565b610845565b61028561085a565b60405161021491906116b8565b6102076102a0366004611567565b610869565b61020761087b565b6102076108d0565b6102076108d6565b610207610942565b610258610948565b6102586102db36600461163d565b6109d4565b610207610a75565b6102586102f6366004611582565b610ba1565b610285610c25565b61025861031136600461166d565b610c34565b610258610324366004611567565b610c80565b6102586103373660046115ac565b610cde565b61025861034a366004611567565b610d26565b61020761035d366004611567565b610d32565b610243610d44565b610258610d4d565b610207610d58565b610207610d5e565b610285610d64565b610207610d73565b6102586103a0366004611567565b610d79565b6102076103b3366004611567565b610e3c565b610258610e4e565b6001600160a01b0381166000908152600d602052604081205460ff166103e8575060006106dc565b6001600160a01b0382166000908152600a60205260408120546104139061040d61087b565b90610f58565b6001600160a01b0384166000908152600f602052604081205491925042821161043e575060006104c1565b6002546040516370a0823160e01b81526001600160a01b03909116906370a082319061046e9088906004016116b8565b60206040518083038186803b15801561048657600080fd5b505afa15801561049a573d6000803e3d6000fd5b505050506040513d601f19601f820116820180604052508101906104be9190611655565b90505b620f424081610591576001600160a01b03861660009081526011602052604090205483116104f65760009450505050506106dc565b6001600160a01b03861660009081526010602052604090205483101561051e57506000610591565b6001600160a01b038616600090815260116020526040812054610542908590610f58565b6001600160a01b0388166000908152601160205260408120549192509061056a904290610f58565b905061058c620f4240610587836105818387610f9a565b90610f0d565b610fd4565b925050505b61059b8482610f9a565b6001600160a01b0387166000908152600e602052604081205491955090808411156105c8578091506106c8565b428510156106b6576002546040517efdd58e0000000000000000000000000000000000000000000000000000000081526000916001600160a01b03169062fdd58e9061061a908c908a906004016116cc565b60206040518083038186803b15801561063257600080fd5b505afa925050508015610662575060408051601f3d908101601f1916820190925261065f91810190611655565b60015b61069c573d808015610690576040519150601f19603f3d011682016040523d82523d6000602084013e610695565b606091505b505061069f565b90505b6106ae60026105818385610fea565b9250506106c8565b6106c560026105818684610fea565b91505b506106d487828761100f565b955050505050505b919050565b600f6020526000908152604090205481565b600d6020526000908152604090205460ff1681565b610710611052565b6000546001600160a01b039081169116146107465760405162461bcd60e51b815260040161073d9061194d565b60405180910390fd5b4260068190556008546107599190610fea565b600555600254604080517f18160ddd00000000000000000000000000000000000000000000000000000000815290516001600160a01b03909216916318160ddd91600480820192602092909190829003018186803b1580156107ba57600080fd5b505afa1580156107ce573d6000803e3d6000fd5b505050506040513d601f19601f820116820180604052508101906107f29190611655565b600c556040517fb5cfe3ccd03847076864f081609024cbc2eb98c38da4d8b2cebe9479a9a1ef3790600090a1565b6000610839600854600754610f9a90919063ffffffff16565b90505b90565b600c5481565b60126020526000908152604090205460ff1681565b6004546001600160a01b031681565b600b6020526000908152604090205481565b6000600c5460001415610891575060095461083c565b6108c96108c0600c54610581670de0b6b3a76400006108ba6007546108ba60065461040d6108d6565b90610f9a565b60095490610fea565b905061083c565b60095481565b600554600090428110156109325760006008546108fe60055442610f5890919063ffffffff16565b8161090557fe5b04905061092e6109256008546108ba600185610fea90919063ffffffff16565b60055490610fea565b9150505b61093c4282610fd4565b91505090565b60075481565b610950611052565b6000546001600160a01b0390811691161461097d5760405162461bcd60e51b815260040161073d9061194d565b600080546040516001600160a01b03909116907f8be0079c531659141344cd1fd0a4f28419497f9722a3daafe3b4186f6b6457e0908390a36000805473ffffffffffffffffffffffffffffffffffffffff19169055565b6109dc611052565b6000546001600160a01b03908116911614610a095760405162461bcd60e51b815260040161073d9061194d565b6005541580610a19575060055442115b610a355760405162461bcd60e51b815260040161073d90611982565b60088190556040517fce653f06b9044b00e7d9d01b9b4228e84812092cb6a38371889bef19370d21f790610a6a908390611a3c565b60405180910390a150565b600060026001541415610a9a5760405162461bcd60e51b815260040161073d90611a05565b600260015560135460ff1615610ac25760405162461bcd60e51b815260040161073d90611825565b33610acc81611056565b3360009081526012602052604090205460ff1615610afc5760405162461bcd60e51b815260040161073d906118b9565b336000908152600b602052604090205491508115610b8757336000818152600b6020526040812055600454610b3d916001600160a01b0390911690846111fe565b60045460405133917f3998039806f6db7e5d83a5371638cc47dd2e9ae500d5d561d95ec6381f53e3cd91610b7e9186916001600160a01b0390911690611a45565b60405180910390a25b503360009081526011602052604090204290556001805590565b610ba9611052565b6000546001600160a01b03908116911614610bd65760405162461bcd60e51b815260040161073d9061194d565b610be882610be2610c25565b836111fe565b7f55350610fe57096d8c0ffa30beede987326bccfcb0b4415804164d0dd50ce8b18282604051610c199291906116cc565b60405180910390a15050565b6000546001600160a01b031690565b610c3c611052565b6000546001600160a01b03908116911614610c695760405162461bcd60e51b815260040161073d9061194d565b60078290558015610c7c57610c7c610e4e565b5050565b610c88611052565b6000546001600160a01b03908116911614610cb55760405162461bcd60e51b815260040161073d9061194d565b6001600160a01b03166000908152601260205260409020805460ff19811660ff90911615179055565b610ce6611052565b6000546001600160a01b03908116911614610d135760405162461bcd60e51b815260040161073d9061194d565b6013805460ff1916911515919091179055565b610d2f81611056565b50565b600a6020526000908152604090205481565b60135460ff1681565b610d5633611056565b565b60065481565b60085481565b6003546001600160a01b031681565b60055481565b610d81611052565b6000546001600160a01b03908116911614610dae5760405162461bcd60e51b815260040161073d9061194d565b6001600160a01b038116610dd45760405162461bcd60e51b815260040161073d9061175a565b600080546040516001600160a01b03808516939216917f8be0079c531659141344cd1fd0a4f28419497f9722a3daafe3b4186f6b6457e091a36000805473ffffffffffffffffffffffffffffffffffffffff19166001600160a01b0392909216919091179055565b600e6020526000908152604090205481565b600260009054906101000a90046001600160a01b03166001600160a01b03166318160ddd6040518163ffffffff1660e01b815260040160206040518083038186803b158015610e9c57600080fd5b505afa158015610eb0573d6000803e3d6000fd5b505050506040513d601f19601f82011682018060405250810190610ed49190611655565b600c55600554421115610eee57610ee9611301565b610d56565b6000610ef861087b565b60098190559050610f076108d6565b60065550565b6000610f4f83836040518060400160405280601a81526020017f536166654d6174683a206469766973696f6e206279207a65726f00000000000081525061148d565b90505b92915050565b6000610f4f83836040518060400160405280601e81526020017f536166654d6174683a207375627472616374696f6e206f766572666c6f7700008152506114c4565b600082610fa957506000610f52565b82820282848281610fb657fe5b0414610f4f5760405162461bcd60e51b815260040161073d906118f0565b6000818310610fe35781610f4f565b5090919050565b600082820183811015610f4f5760405162461bcd60e51b815260040161073d906117b7565b6001600160a01b0383166000908152600b602052604081205461104a9061104469d3c21bcecceda10000006105818787610f9a565b90610fea565b949350505050565b3390565b61105e610e4e565b611067816114f0565b61106f611539565b6002546040517fcbf9fe5f0000000000000000000000000000000000000000000000000000000081526001600160a01b039091169063cbf9fe5f906110b89085906004016116b8565b604080518083038186803b1580156110cf57600080fd5b505afa1580156110e3573d6000803e3d6000fd5b505050506040513d601f19601f8201168201806040525081019061110791906115e4565b6002546040516370a0823160e01b81529192506001600160a01b0316906370a08231906111389085906004016116b8565b60206040518083038186803b15801561115057600080fd5b505afa158015611164573d6000803e3d6000fd5b505050506040513d601f19601f820116820180604052508101906111889190611655565b6001600160a01b0383166000908152600e602090815260408083209390935583810151600f82528383205560108152828220429055600d9052205460ff16610c7c576001600160a01b0382166000908152600d60209081526040808320805460ff19166001179055601190915290204290555050565b60006060846001600160a01b031663a9059cbb85856040516024016112249291906116cc565b6040516020818303038152906040529060e01b6020820180517bffffffffffffffffffffffffffffffffffffffffffffffffffffffff8381831617835250505050604051611272919061169c565b6000604051808303816000865af19150503d80600081146112af576040519150601f19603f3d011682016040523d82523d6000602084013e6112b4565b606091505b50915091508180156112de5750805115806112de5750808060200190518101906112de91906115c8565b6112fa5760405162461bcd60e51b815260040161073d90611723565b5050505050565b60055442116113225760405162461bcd60e51b815260040161073d906117ee565b600060085461133c60055442610f5890919063ffffffff16565b8161134357fe5b6003546040516370a0823160e01b81529290910492506000916001600160a01b03909116906370a082319061137c9030906004016116b8565b60206040518083038186803b15801561139457600080fd5b505afa1580156113a8573d6000803e3d6000fd5b505050506040513d601f19601f820116820180604052508101906113cc9190611655565b9050806113ed836001016108ba600854600754610f9a90919063ffffffff16565b111561140b5760405162461bcd60e51b815260040161073d9061185c565b60085461142190610925906108ba856001610fea565b600555600061142e61087b565b6009819055905061143d6108d6565b6006556004546007546040517fb304aeb00c30205e714696b5e1e78d04e16b0ad608da8c3c700796c1ddea636792611480926001600160a01b03909116916116cc565b60405180910390a1505050565b600081836114ae5760405162461bcd60e51b815260040161073d91906116f0565b5060008385816114ba57fe5b0495945050505050565b600081848411156114e85760405162461bcd60e51b815260040161073d91906116f0565b505050900390565b6001600160a01b03811615610d2f57600061150a826103c0565b6001600160a01b0383166000908152600b6020908152604080832093909355600954600a909152919020555050565b604080518082019091526000808252602082015290565b80356001600160a01b0381168114610f5257600080fd5b600060208284031215611578578081fd5b610f4f8383611550565b60008060408385031215611594578081fd5b61159e8484611550565b946020939093013593505050565b6000602082840312156115bd578081fd5b8135610f4f81611a8c565b6000602082840312156115d9578081fd5b8151610f4f81611a8c565b6000604082840312156115f5578081fd5b6040516040810181811067ffffffffffffffff82111715611614578283fd5b6040528251600f81900b8114611628578283fd5b81526020928301519281019290925250919050565b60006020828403121561164e578081fd5b5035919050565b600060208284031215611666578081fd5b5051919050565b6000806040838503121561167f578182fd5b82359150602083013561169181611a8c565b809150509250929050565b600082516116ae818460208701611a5c565b9190910192915050565b6001600160a01b0391909116815260200190565b6001600160a01b03929092168252602082015260400190565b901515815260200190565b600060208252825180602084015261170f816040850160208701611a5c565b601f01601f19169190910160400192915050565b6020808252601f908201527f5472616e7366657248656c7065723a205452414e534645525f4641494c454400604082015260600190565b60208082526026908201527f4f776e61626c653a206e6577206f776e657220697320746865207a65726f206160408201527f6464726573730000000000000000000000000000000000000000000000000000606082015260800190565b6020808252601b908201527f536166654d6174683a206164646974696f6e206f766572666c6f770000000000604082015260600190565b6020808252601b908201527f506572696f6420686173206e6f74206578706972656420796574210000000000604082015260600190565b6020808252601a908201527f5969656c6420636f6c6c656374696f6e20697320706175736564000000000000604082015260600190565b60208082526039908201527f4e6f7420656e6f75676820656d6974746564546f6b656e20617661696c61626c60408201527f6520666f72207969656c6420646973747269627574696f6e2100000000000000606082015260800190565b6020808252601b908201527f4164647265737320686173206265656e20677265796c69737465640000000000604082015260600190565b60208082526021908201527f536166654d6174683a206d756c7469706c69636174696f6e206f766572666c6f60408201527f7700000000000000000000000000000000000000000000000000000000000000606082015260800190565b6020808252818101527f4f776e61626c653a2063616c6c6572206973206e6f7420746865206f776e6572604082015260600190565b60208082526056908201527f50726576696f7573207969656c6420706572696f64206d75737420626520636f60408201527f6d706c657465206265666f7265206368616e67696e672074686520647572617460608201527f696f6e20666f7220746865206e657720706572696f6400000000000000000000608082015260a00190565b6020808252601f908201527f5265656e7472616e637947756172643a207265656e7472616e742063616c6c00604082015260600190565b90815260200190565b9182526001600160a01b0316602082015260400190565b60005b83811015611a77578181015183820152602001611a5f565b83811115611a86576000848401525b50505050565b8015158114610d2f57600080fdfea2646970667358221220064ac031e8ab6576c1db3b89cc2b0b472237abe20d791b9d25f7198cc114e5ac64736f6c63430007010033",
  "devdoc": {
    "kind": "dev",
    "methods": {
      "owner()": {
        "details": "Returns the address of the current owner."
      },
      "renounceOwnership()": {
        "details": "Leaves the contract without owner. It will not be possible to call `onlyOwner` functions anymore. Can only be called by the current owner. NOTE: Renouncing ownership will leave the contract without an owner, thereby removing any functionality that is only available to the owner."
      },
      "transferOwnership(address)": {
        "details": "Transfers ownership of the contract to a new account (`newOwner`). Can only be called by the current owner."
      }
    },
    "version": 1
  },
  "userdoc": {
    "kind": "user",
    "methods": {},
    "version": 1
  },
  "storageLayout": {
    "storage": [
      {
        "astId": 30,
        "contract": "src/Rewards/HiIQRewards.sol:HiIQRewards",
        "label": "_owner",
        "offset": 0,
        "slot": "0",
        "type": "t_address"
      },
      {
        "astId": 1413,
        "contract": "src/Rewards/HiIQRewards.sol:HiIQRewards",
        "label": "_status",
        "offset": 0,
        "slot": "1",
        "type": "t_uint256"
      },
      {
        "astId": 1907,
        "contract": "src/Rewards/HiIQRewards.sol:HiIQRewards",
        "label": "hiIQ",
        "offset": 0,
        "slot": "2",
        "type": "t_contract(IhiIQ)1692"
      },
      {
        "astId": 1909,
        "contract": "src/Rewards/HiIQRewards.sol:HiIQRewards",
        "label": "emittedToken",
        "offset": 0,
        "slot": "3",
        "type": "t_contract(ERC20)907"
      },
      {
        "astId": 1911,
        "contract": "src/Rewards/HiIQRewards.sol:HiIQRewards",
        "label": "emitted_token_address",
        "offset": 0,
        "slot": "4",
        "type": "t_address"
      },
      {
        "astId": 1916,
        "contract": "src/Rewards/HiIQRewards.sol:HiIQRewards",
        "label": "periodFinish",
        "offset": 0,
        "slot": "5",
        "type": "t_uint256"
      },
      {
        "astId": 1918,
        "contract": "src/Rewards/HiIQRewards.sol:HiIQRewards",
        "label": "lastUpdateTime",
        "offset": 0,
        "slot": "6",
        "type": "t_uint256"
      },
      {
        "astId": 1920,
        "contract": "src/Rewards/HiIQRewards.sol:HiIQRewards",
        "label": "yieldRate",
        "offset": 0,
        "slot": "7",
        "type": "t_uint256"
      },
      {
        "astId": 1923,
        "contract": "src/Rewards/HiIQRewards.sol:HiIQRewards",
        "label": "yieldDuration",
        "offset": 0,
        "slot": "8",
        "type": "t_uint256"
      },
      {
        "astId": 1926,
        "contract": "src/Rewards/HiIQRewards.sol:HiIQRewards",
        "label": "yieldPerHiIQStored",
        "offset": 0,
        "slot": "9",
        "type": "t_uint256"
      },
      {
        "astId": 1930,
        "contract": "src/Rewards/HiIQRewards.sol:HiIQRewards",
        "label": "userYieldPerTokenPaid",
        "offset": 0,
        "slot": "10",
        "type": "t_mapping(t_address,t_uint256)"
      },
      {
        "astId": 1934,
        "contract": "src/Rewards/HiIQRewards.sol:HiIQRewards",
        "label": "yields",
        "offset": 0,
        "slot": "11",
        "type": "t_mapping(t_address,t_uint256)"
      },
      {
        "astId": 1937,
        "contract": "src/Rewards/HiIQRewards.sol:HiIQRewards",
        "label": "totalHiIQSupplyStored",
        "offset": 0,
        "slot": "12",
        "type": "t_uint256"
      },
      {
        "astId": 1941,
        "contract": "src/Rewards/HiIQRewards.sol:HiIQRewards",
        "label": "userIsInitialized",
        "offset": 0,
        "slot": "13",
        "type": "t_mapping(t_address,t_bool)"
      },
      {
        "astId": 1945,
        "contract": "src/Rewards/HiIQRewards.sol:HiIQRewards",
        "label": "userHiIQCheckpointed",
        "offset": 0,
        "slot": "14",
        "type": "t_mapping(t_address,t_uint256)"
      },
      {
        "astId": 1949,
        "contract": "src/Rewards/HiIQRewards.sol:HiIQRewards",
        "label": "userHiIQEndpointCheckpointed",
        "offset": 0,
        "slot": "15",
        "type": "t_mapping(t_address,t_uint256)"
      },
      {
        "astId": 1953,
        "contract": "src/Rewards/HiIQRewards.sol:HiIQRewards",
        "label": "userHiIQLastCheckpointed",
        "offset": 0,
        "slot": "16",
        "type": "t_mapping(t_address,t_uint256)"
      },
      {
        "astId": 1957,
        "contract": "src/Rewards/HiIQRewards.sol:HiIQRewards",
        "label": "lastRewardClaimTime",
        "offset": 0,
        "slot": "17",
        "type": "t_mapping(t_address,t_uint256)"
      },
      {
        "astId": 1961,
        "contract": "src/Rewards/HiIQRewards.sol:HiIQRewards",
        "label": "greylist",
        "offset": 0,
        "slot": "18",
        "type": "t_mapping(t_address,t_bool)"
      },
      {
        "astId": 1964,
        "contract": "src/Rewards/HiIQRewards.sol:HiIQRewards",
        "label": "yieldCollectionPaused",
        "offset": 0,
        "slot": "19",
        "type": "t_bool"
      }
    ],
    "types": {
      "t_address": {
        "encoding": "inplace",
        "label": "address",
        "numberOfBytes": "20"
      },
      "t_bool": {
        "encoding": "inplace",
        "label": "bool",
        "numberOfBytes": "1"
      },
      "t_contract(ERC20)907": {
        "encoding": "inplace",
        "label": "contract ERC20",
        "numberOfBytes": "20"
      },
      "t_contract(IhiIQ)1692": {
        "encoding": "inplace",
        "label": "contract IhiIQ",
        "numberOfBytes": "20"
      },
      "t_mapping(t_address,t_bool)": {
        "encoding": "mapping",
        "key": "t_address",
        "label": "mapping(address => bool)",
        "numberOfBytes": "32",
        "value": "t_bool"
      },
      "t_mapping(t_address,t_uint256)": {
        "encoding": "mapping",
        "key": "t_address",
        "label": "mapping(address => uint256)",
        "numberOfBytes": "32",
        "value": "t_uint256"
      },
      "t_uint256": {
        "encoding": "inplace",
        "label": "uint256",
        "numberOfBytes": "32"
      }
    }
  }
}